{
  "contractName": "CertifierRole",
  "abi": [
    {
      "inputs": [],
      "payable": false,
      "stateMutability": "nonpayable",
      "type": "constructor"
    },
    {
      "anonymous": false,
      "inputs": [
        {
          "indexed": true,
          "name": "account",
          "type": "address"
        }
      ],
      "name": "CertifierAdded",
      "type": "event"
    },
    {
      "anonymous": false,
      "inputs": [
        {
          "indexed": true,
          "name": "account",
          "type": "address"
        }
      ],
      "name": "CertifierRemoved",
      "type": "event"
    },
    {
      "constant": true,
      "inputs": [
        {
          "name": "account",
          "type": "address"
        }
      ],
      "name": "isCertifier",
      "outputs": [
        {
          "name": "",
          "type": "bool"
        }
      ],
      "payable": false,
      "stateMutability": "view",
      "type": "function"
    },
    {
      "constant": false,
      "inputs": [
        {
          "name": "account",
          "type": "address"
        }
      ],
      "name": "addCertifier",
      "outputs": [],
      "payable": false,
      "stateMutability": "nonpayable",
      "type": "function"
    },
    {
      "constant": false,
      "inputs": [],
      "name": "renounceCertifier",
      "outputs": [],
      "payable": false,
      "stateMutability": "nonpayable",
      "type": "function"
    }
  ],
  "bytecode": "0x608060405234801561001057600080fd5b506100293361002e640100000000026401000000009004565b6101e8565b61004f816000610095640100000000026102a1179091906401000000009004565b8073ffffffffffffffffffffffffffffffffffffffff167f9e685b594e54f370ef91382c0da443292b1378dec458f2a0d0009e7451547dab60405160405180910390a250565b600073ffffffffffffffffffffffffffffffffffffffff168173ffffffffffffffffffffffffffffffffffffffff16141515156100d157600080fd5b6100ea8282610154640100000000026401000000009004565b1515156100f657600080fd5b60018260000160008373ffffffffffffffffffffffffffffffffffffffff1673ffffffffffffffffffffffffffffffffffffffff16815260200190815260200160002060006101000a81548160ff0219169083151502179055505050565b60008073ffffffffffffffffffffffffffffffffffffffff168273ffffffffffffffffffffffffffffffffffffffff161415151561019157600080fd5b8260000160008373ffffffffffffffffffffffffffffffffffffffff1673ffffffffffffffffffffffffffffffffffffffff16815260200190815260200160002060009054906101000a900460ff16905092915050565b61042c806101f76000396000f300608060405260043610610057576000357c0100000000000000000000000000000000000000000000000000000000900463ffffffff1680631c2353e11461005c5780632b198366146100b7578063c9cb2d04146100fa575b600080fd5b34801561006857600080fd5b5061009d600480360381019080803573ffffffffffffffffffffffffffffffffffffffff169060200190929190505050610111565b604051808215151515815260200191505060405180910390f35b3480156100c357600080fd5b506100f8600480360381019080803573ffffffffffffffffffffffffffffffffffffffff16906020019092919050505061012e565b005b34801561010657600080fd5b5061010f61014e565b005b600061012782600061015990919063ffffffff16565b9050919050565b61013733610111565b151561014257600080fd5b61014b816101ed565b50565b61015733610247565b565b60008073ffffffffffffffffffffffffffffffffffffffff168273ffffffffffffffffffffffffffffffffffffffff161415151561019657600080fd5b8260000160008373ffffffffffffffffffffffffffffffffffffffff1673ffffffffffffffffffffffffffffffffffffffff16815260200190815260200160002060009054906101000a900460ff16905092915050565b6102018160006102a190919063ffffffff16565b8073ffffffffffffffffffffffffffffffffffffffff167f9e685b594e54f370ef91382c0da443292b1378dec458f2a0d0009e7451547dab60405160405180910390a250565b61025b81600061035190919063ffffffff16565b8073ffffffffffffffffffffffffffffffffffffffff167f45cee538c02c2ddcdfc31b5b9ab913c23f938f81483c880884d94694b2985a3360405160405180910390a250565b600073ffffffffffffffffffffffffffffffffffffffff168173ffffffffffffffffffffffffffffffffffffffff16141515156102dd57600080fd5b6102e78282610159565b1515156102f357600080fd5b60018260000160008373ffffffffffffffffffffffffffffffffffffffff1673ffffffffffffffffffffffffffffffffffffffff16815260200190815260200160002060006101000a81548160ff0219169083151502179055505050565b600073ffffffffffffffffffffffffffffffffffffffff168173ffffffffffffffffffffffffffffffffffffffff161415151561038d57600080fd5b6103978282610159565b15156103a257600080fd5b60008260000160008373ffffffffffffffffffffffffffffffffffffffff1673ffffffffffffffffffffffffffffffffffffffff16815260200190815260200160002060006101000a81548160ff02191690831515021790555050505600a165627a7a7230582003ac54a1f28a663554bb5a21d5807a8741aca036b402d7edd14f644f9c10ccc60029",
  "source": "pragma solidity ^0.4.24;\n\n// Import the library 'Roles'\nimport \"./Roles.sol\";\n\n// Define a contract 'CertifierRole' to manage this role - add, remove, check\ncontract CertifierRole {\n    using Roles for Roles.Role;\n\n  // Define 2 events, one for Adding, and other for Removing\n  event CertifierAdded(address indexed account);\n  event CertifierRemoved(address indexed account);\n\n  // Define a struct 'certifiers' by inheriting from 'Roles' library, struct Role\n  Roles.Role private certifiers;\n  // In the constructor make the address that deploys this contract the 1st certifier\n  constructor() public {\n    _addCertifier(msg.sender);\n  }\n\n  // Define a modifier that checks to see if msg.sender has the appropriate role\n  modifier onlyCertifier() {\n    require(isCertifier(msg.sender));\n    _;\n  }\n\n  // Define a function 'isCertifier' to check this role\n  function isCertifier(address account) public view returns (bool) {\n    return certifiers.has(account);\n  }\n\n  // Define a function 'addCertifier' that adds this role\n  function addCertifier(address account) public onlyCertifier {\n    _addCertifier(account);\n  }\n\n  // Define a function 'renounceCertifier' to renounce this role\n  function renounceCertifier() public {\n    _removeCertifier(msg.sender);\n  }\n\n  // Define an internal function '_addCertifier' to add this role, called by 'addCertifier'\n  function _addCertifier(address account) internal {\n    certifiers.add(account);\n    emit CertifierAdded(account);\n  }\n\n  // Define an internal function '_removeCertifier' to remove this role, called by 'removeCertifier'\n  function _removeCertifier(address account) internal {\n    certifiers.remove(account);\n    emit CertifierRemoved(account);\n  }\n}",
  "sourcePath": "C:\\Swati\\BlockChain\\Project6\\contracts\\diamondaccesscontrol\\CertifierRole.sol",
  "compiler": {
    "name": "solc",
    "version": "0.4.24+commit.e67f0147.Emscripten.clang"
  },
  "schemaVersion": "2.0.1",
  "updatedAt": "2019-03-12T23:37:02.512Z"
}