{
  "contractName": "JewellerRole",
  "abi": [
    {
      "inputs": [],
      "payable": false,
      "stateMutability": "nonpayable",
      "type": "constructor"
    },
    {
      "anonymous": false,
      "inputs": [
        {
          "indexed": true,
          "name": "account",
          "type": "address"
        }
      ],
      "name": "JewellerAdded",
      "type": "event"
    },
    {
      "anonymous": false,
      "inputs": [
        {
          "indexed": true,
          "name": "account",
          "type": "address"
        }
      ],
      "name": "JewellerRemoved",
      "type": "event"
    },
    {
      "constant": true,
      "inputs": [
        {
          "name": "account",
          "type": "address"
        }
      ],
      "name": "isJeweller",
      "outputs": [
        {
          "name": "",
          "type": "bool"
        }
      ],
      "payable": false,
      "stateMutability": "view",
      "type": "function"
    },
    {
      "constant": false,
      "inputs": [
        {
          "name": "account",
          "type": "address"
        }
      ],
      "name": "addJeweller",
      "outputs": [],
      "payable": false,
      "stateMutability": "nonpayable",
      "type": "function"
    },
    {
      "constant": false,
      "inputs": [],
      "name": "renounceJeweller",
      "outputs": [],
      "payable": false,
      "stateMutability": "nonpayable",
      "type": "function"
    }
  ],
  "bytecode": "0x608060405234801561001057600080fd5b506100293361002e640100000000026401000000009004565b6101e8565b61004f816000610095640100000000026102a1179091906401000000009004565b8073ffffffffffffffffffffffffffffffffffffffff167f8822170bea86e96454f483ceee2e06476112c4279f6842fd6e0d7d29e10a8c9360405160405180910390a250565b600073ffffffffffffffffffffffffffffffffffffffff168173ffffffffffffffffffffffffffffffffffffffff16141515156100d157600080fd5b6100ea8282610154640100000000026401000000009004565b1515156100f657600080fd5b60018260000160008373ffffffffffffffffffffffffffffffffffffffff1673ffffffffffffffffffffffffffffffffffffffff16815260200190815260200160002060006101000a81548160ff0219169083151502179055505050565b60008073ffffffffffffffffffffffffffffffffffffffff168273ffffffffffffffffffffffffffffffffffffffff161415151561019157600080fd5b8260000160008373ffffffffffffffffffffffffffffffffffffffff1673ffffffffffffffffffffffffffffffffffffffff16815260200190815260200160002060009054906101000a900460ff16905092915050565b61042c806101f76000396000f300608060405260043610610057576000357c0100000000000000000000000000000000000000000000000000000000900463ffffffff16806399d04f9e1461005c578063c16a8d291461009f578063c1776068146100fa575b600080fd5b34801561006857600080fd5b5061009d600480360381019080803573ffffffffffffffffffffffffffffffffffffffff169060200190929190505050610111565b005b3480156100ab57600080fd5b506100e0600480360381019080803573ffffffffffffffffffffffffffffffffffffffff169060200190929190505050610131565b604051808215151515815260200191505060405180910390f35b34801561010657600080fd5b5061010f61014e565b005b61011a33610131565b151561012557600080fd5b61012e81610159565b50565b60006101478260006101b390919063ffffffff16565b9050919050565b61015733610247565b565b61016d8160006102a190919063ffffffff16565b8073ffffffffffffffffffffffffffffffffffffffff167f8822170bea86e96454f483ceee2e06476112c4279f6842fd6e0d7d29e10a8c9360405160405180910390a250565b60008073ffffffffffffffffffffffffffffffffffffffff168273ffffffffffffffffffffffffffffffffffffffff16141515156101f057600080fd5b8260000160008373ffffffffffffffffffffffffffffffffffffffff1673ffffffffffffffffffffffffffffffffffffffff16815260200190815260200160002060009054906101000a900460ff16905092915050565b61025b81600061035190919063ffffffff16565b8073ffffffffffffffffffffffffffffffffffffffff167f7e3afdbb6a6ac57f601590ffcc549ce2b25a2128ff6cdd6520333aa46bb044c360405160405180910390a250565b600073ffffffffffffffffffffffffffffffffffffffff168173ffffffffffffffffffffffffffffffffffffffff16141515156102dd57600080fd5b6102e782826101b3565b1515156102f357600080fd5b60018260000160008373ffffffffffffffffffffffffffffffffffffffff1673ffffffffffffffffffffffffffffffffffffffff16815260200190815260200160002060006101000a81548160ff0219169083151502179055505050565b600073ffffffffffffffffffffffffffffffffffffffff168173ffffffffffffffffffffffffffffffffffffffff161415151561038d57600080fd5b61039782826101b3565b15156103a257600080fd5b60008260000160008373ffffffffffffffffffffffffffffffffffffffff1673ffffffffffffffffffffffffffffffffffffffff16815260200190815260200160002060006101000a81548160ff02191690831515021790555050505600a165627a7a72305820a26f09248755438dd9b5d82c6376bd35f83a9fdc4e6682125665835d344ffe2c0029",
  "source": "pragma solidity ^0.4.24;\n\n// Import the library 'Roles'\nimport \"./Roles.sol\";\n\n// Define a contract 'JewellerRole' to manage this role - add, remove, check\ncontract JewellerRole {\n  using Roles for Roles.Role;\n\n  // Define 2 events, one for Adding, and other for Removing\n  event JewellerAdded(address indexed account );\n  event JewellerRemoved(address indexed account);\n\n  // Define a struct 'jewellers' by inheriting from 'Roles' library, struct Role\n  Roles.Role private jewellers;\n\n  // In the constructor make the address that deploys this contract the 1st jeweller\n  constructor() public {\n    _addJeweller(msg.sender);\n  }\n\n  // Define a modifier that checks to see if msg.sender has the appropriate role\n  modifier onlyJeweller() {\n    require(isJeweller(msg.sender));\n    _;\n  }\n\n  // Define a function 'isJeweller' to check this role\n  function isJeweller(address account) public view returns (bool) {\n    return jewellers.has(account);\n  }\n\n  // Define a function 'addJeweller' that adds this role\n  function addJeweller(address account) public onlyJeweller {\n    _addJeweller(account);\n  }\n\n  // Define a function 'renounceJeweller' to renounce this role\n  function renounceJeweller() public {\n    _removeJeweller(msg.sender);\n  }\n\n  // Define an internal function '_addJeweller' to add this role, called by 'addJeweller'\n  function _addJeweller(address account) internal {\n    jewellers.add(account);\n    emit JewellerAdded(account);\n  }\n\n  // Define an internal function '_removeJeweller' to remove this role, called by 'removeJeweller'\n  function _removeJeweller(address account) internal {\n    jewellers.remove(account);\n    emit JewellerRemoved(account);\n  }\n}",
  "sourcePath": "C:\\Swati\\BlockChain\\Project6\\contracts\\diamondaccesscontrol\\JewellerRole.sol",
  "compiler": {
    "name": "solc",
    "version": "0.4.24+commit.e67f0147.Emscripten.clang"
  },
  "schemaVersion": "2.0.1",
  "updatedAt": "2019-03-10T17:05:52.875Z"
}