{
  "contractName": "MinerRole",
  "abi": [
    {
      "inputs": [],
      "payable": false,
      "stateMutability": "nonpayable",
      "type": "constructor"
    },
    {
      "anonymous": false,
      "inputs": [
        {
          "indexed": true,
          "name": "account",
          "type": "address"
        }
      ],
      "name": "MinerAdded",
      "type": "event"
    },
    {
      "anonymous": false,
      "inputs": [
        {
          "indexed": true,
          "name": "account",
          "type": "address"
        }
      ],
      "name": "MinerRemoved",
      "type": "event"
    },
    {
      "constant": true,
      "inputs": [
        {
          "name": "account",
          "type": "address"
        }
      ],
      "name": "isMiner",
      "outputs": [
        {
          "name": "",
          "type": "bool"
        }
      ],
      "payable": false,
      "stateMutability": "view",
      "type": "function"
    },
    {
      "constant": false,
      "inputs": [
        {
          "name": "account",
          "type": "address"
        }
      ],
      "name": "addMiner",
      "outputs": [],
      "payable": false,
      "stateMutability": "nonpayable",
      "type": "function"
    },
    {
      "constant": false,
      "inputs": [],
      "name": "renounceMiner",
      "outputs": [],
      "payable": false,
      "stateMutability": "nonpayable",
      "type": "function"
    }
  ],
  "bytecode": "0x608060405234801561001057600080fd5b506100293361002e640100000000026401000000009004565b6101e8565b61004f81600061009564010000000002610350179091906401000000009004565b8073ffffffffffffffffffffffffffffffffffffffff167f174847fbc976d2d8ecaced95d821f1d0be15b9a507f3ca3c6732d7662af4207e60405160405180910390a250565b600073ffffffffffffffffffffffffffffffffffffffff168173ffffffffffffffffffffffffffffffffffffffff16141515156100d157600080fd5b6100ea8282610154640100000000026401000000009004565b1515156100f657600080fd5b60018260000160008373ffffffffffffffffffffffffffffffffffffffff1673ffffffffffffffffffffffffffffffffffffffff16815260200190815260200160002060006101000a81548160ff0219169083151502179055505050565b60008073ffffffffffffffffffffffffffffffffffffffff168273ffffffffffffffffffffffffffffffffffffffff161415151561019157600080fd5b8260000160008373ffffffffffffffffffffffffffffffffffffffff1673ffffffffffffffffffffffffffffffffffffffff16815260200190815260200160002060009054906101000a900460ff16905092915050565b61042c806101f76000396000f300608060405260043610610057576000357c0100000000000000000000000000000000000000000000000000000000900463ffffffff168063701b70ac1461005c578063ae46352a146100b7578063f3982e5e146100ce575b600080fd5b34801561006857600080fd5b5061009d600480360381019080803573ffffffffffffffffffffffffffffffffffffffff169060200190929190505050610111565b604051808215151515815260200191505060405180910390f35b3480156100c357600080fd5b506100cc61012e565b005b3480156100da57600080fd5b5061010f600480360381019080803573ffffffffffffffffffffffffffffffffffffffff169060200190929190505050610139565b005b600061012782600061015990919063ffffffff16565b9050919050565b610137336101ed565b565b61014233610111565b151561014d57600080fd5b61015681610247565b50565b60008073ffffffffffffffffffffffffffffffffffffffff168273ffffffffffffffffffffffffffffffffffffffff161415151561019657600080fd5b8260000160008373ffffffffffffffffffffffffffffffffffffffff1673ffffffffffffffffffffffffffffffffffffffff16815260200190815260200160002060009054906101000a900460ff16905092915050565b6102018160006102a190919063ffffffff16565b8073ffffffffffffffffffffffffffffffffffffffff167f5cc1994decde3269aa6e74a6ebaea65385d20e57613532d2a24a47233de42aa760405160405180910390a250565b61025b81600061035090919063ffffffff16565b8073ffffffffffffffffffffffffffffffffffffffff167f174847fbc976d2d8ecaced95d821f1d0be15b9a507f3ca3c6732d7662af4207e60405160405180910390a250565b600073ffffffffffffffffffffffffffffffffffffffff168173ffffffffffffffffffffffffffffffffffffffff16141515156102dd57600080fd5b6102e78282610159565b15156102f257600080fd5b60008260000160008373ffffffffffffffffffffffffffffffffffffffff1673ffffffffffffffffffffffffffffffffffffffff16815260200190815260200160002060006101000a81548160ff0219169083151502179055505050565b600073ffffffffffffffffffffffffffffffffffffffff168173ffffffffffffffffffffffffffffffffffffffff161415151561038c57600080fd5b6103968282610159565b1515156103a257600080fd5b60018260000160008373ffffffffffffffffffffffffffffffffffffffff1673ffffffffffffffffffffffffffffffffffffffff16815260200190815260200160002060006101000a81548160ff02191690831515021790555050505600a165627a7a72305820c435d705686afa736ecbdbdc86e0222002d13b04af04fc20f970310526355cc20029",
  "source": "pragma solidity ^0.4.24;\n\n// Import the library 'Roles'\nimport \"./Roles.sol\";\n\n// Define a contract 'MinerRole' to manage this role - add, remove, check\ncontract MinerRole {\n  using Roles for Roles.Role;\n\n  // Define 2 events, one for Adding, and other for Removing\n  event MinerAdded(address indexed account);\n  event MinerRemoved(address indexed account);\n\n  // Define a struct 'miners' by inheriting from 'Roles' library, struct Role\n  Roles.Role private miners;\n\n  // In the constructor make the address that deploys this contract the 1st miner\n  constructor() public {\n    _addMiner(msg.sender);\n  }\n\n  // Define a modifier that checks to see if msg.sender has the appropriate role\n  modifier onlyMiner() {\n    require(isMiner(msg.sender));\n    _;\n  }\n\n  // Define a function 'isMiner' to check this role\n  function isMiner(address account) public view returns (bool) {\n    return miners.has(account);\n  }\n\n  // Define a function 'addMiner' that adds this role\n  function addMiner(address account) public onlyMiner {\n    _addMiner(account);\n  }\n\n  // Define a function 'renounceMiner' to renounce this role\n  function renounceMiner() public {\n    _removeMiner(msg.sender);\n  }\n\n  // Define an internal function '_addMiner' to add this role, called by 'addMiner'\n  function _addMiner(address account) internal {\n    miners.add(account);\n    emit MinerAdded(account);\n  }\n\n  // Define an internal function '_removeMiner' to remove this role, called by 'removeMiner'\n  function _removeMiner(address account) internal {\n    miners.remove(account);\n    emit MinerRemoved(account);\n  }\n}",
  "sourcePath": "C:\\Swati\\BlockChain\\Project6\\contracts\\diamondaccesscontrol\\MinerRole.sol",
  "compiler": {
    "name": "solc",
    "version": "0.4.24+commit.e67f0147.Emscripten.clang"
  },
  "schemaVersion": "2.0.1",
  "updatedAt": "2019-03-12T23:37:02.510Z"
}