{
  "contractName": "SupplyChain",
  "abi": [
    {
      "constant": false,
      "inputs": [
        {
          "name": "account",
          "type": "address"
        }
      ],
      "name": "addConsumer",
      "outputs": [],
      "payable": false,
      "stateMutability": "nonpayable",
      "type": "function"
    },
    {
      "constant": true,
      "inputs": [
        {
          "name": "account",
          "type": "address"
        }
      ],
      "name": "isCertifier",
      "outputs": [
        {
          "name": "",
          "type": "bool"
        }
      ],
      "payable": false,
      "stateMutability": "view",
      "type": "function"
    },
    {
      "constant": false,
      "inputs": [
        {
          "name": "account",
          "type": "address"
        }
      ],
      "name": "addCertifier",
      "outputs": [],
      "payable": false,
      "stateMutability": "nonpayable",
      "type": "function"
    },
    {
      "constant": false,
      "inputs": [],
      "name": "renounceConsumer",
      "outputs": [],
      "payable": false,
      "stateMutability": "nonpayable",
      "type": "function"
    },
    {
      "constant": true,
      "inputs": [
        {
          "name": "account",
          "type": "address"
        }
      ],
      "name": "isMiner",
      "outputs": [
        {
          "name": "",
          "type": "bool"
        }
      ],
      "payable": false,
      "stateMutability": "view",
      "type": "function"
    },
    {
      "constant": true,
      "inputs": [
        {
          "name": "account",
          "type": "address"
        }
      ],
      "name": "isConsumer",
      "outputs": [
        {
          "name": "",
          "type": "bool"
        }
      ],
      "payable": false,
      "stateMutability": "view",
      "type": "function"
    },
    {
      "constant": false,
      "inputs": [
        {
          "name": "account",
          "type": "address"
        }
      ],
      "name": "addJeweller",
      "outputs": [],
      "payable": false,
      "stateMutability": "nonpayable",
      "type": "function"
    },
    {
      "constant": false,
      "inputs": [],
      "name": "renounceMiner",
      "outputs": [],
      "payable": false,
      "stateMutability": "nonpayable",
      "type": "function"
    },
    {
      "constant": true,
      "inputs": [
        {
          "name": "account",
          "type": "address"
        }
      ],
      "name": "isJeweller",
      "outputs": [
        {
          "name": "",
          "type": "bool"
        }
      ],
      "payable": false,
      "stateMutability": "view",
      "type": "function"
    },
    {
      "constant": false,
      "inputs": [],
      "name": "renounceJeweller",
      "outputs": [],
      "payable": false,
      "stateMutability": "nonpayable",
      "type": "function"
    },
    {
      "constant": false,
      "inputs": [],
      "name": "renounceCertifier",
      "outputs": [],
      "payable": false,
      "stateMutability": "nonpayable",
      "type": "function"
    },
    {
      "constant": false,
      "inputs": [
        {
          "name": "account",
          "type": "address"
        }
      ],
      "name": "addMiner",
      "outputs": [],
      "payable": false,
      "stateMutability": "nonpayable",
      "type": "function"
    },
    {
      "inputs": [],
      "payable": true,
      "stateMutability": "payable",
      "type": "constructor"
    },
    {
      "anonymous": false,
      "inputs": [
        {
          "indexed": false,
          "name": "upc",
          "type": "uint256"
        }
      ],
      "name": "Mined",
      "type": "event"
    },
    {
      "anonymous": false,
      "inputs": [
        {
          "indexed": false,
          "name": "upc",
          "type": "uint256"
        }
      ],
      "name": "ForSale",
      "type": "event"
    },
    {
      "anonymous": false,
      "inputs": [
        {
          "indexed": false,
          "name": "upc",
          "type": "uint256"
        }
      ],
      "name": "Sold",
      "type": "event"
    },
    {
      "anonymous": false,
      "inputs": [
        {
          "indexed": false,
          "name": "upc",
          "type": "uint256"
        }
      ],
      "name": "Polished",
      "type": "event"
    },
    {
      "anonymous": false,
      "inputs": [
        {
          "indexed": false,
          "name": "upc",
          "type": "uint256"
        }
      ],
      "name": "Certified",
      "type": "event"
    },
    {
      "anonymous": false,
      "inputs": [
        {
          "indexed": false,
          "name": "upc",
          "type": "uint256"
        }
      ],
      "name": "ForAuction",
      "type": "event"
    },
    {
      "anonymous": false,
      "inputs": [
        {
          "indexed": false,
          "name": "upc",
          "type": "uint256"
        }
      ],
      "name": "Purchased",
      "type": "event"
    },
    {
      "anonymous": false,
      "inputs": [
        {
          "indexed": true,
          "name": "account",
          "type": "address"
        }
      ],
      "name": "MinerAdded",
      "type": "event"
    },
    {
      "anonymous": false,
      "inputs": [
        {
          "indexed": true,
          "name": "account",
          "type": "address"
        }
      ],
      "name": "MinerRemoved",
      "type": "event"
    },
    {
      "anonymous": false,
      "inputs": [
        {
          "indexed": true,
          "name": "account",
          "type": "address"
        }
      ],
      "name": "JewellerAdded",
      "type": "event"
    },
    {
      "anonymous": false,
      "inputs": [
        {
          "indexed": true,
          "name": "account",
          "type": "address"
        }
      ],
      "name": "JewellerRemoved",
      "type": "event"
    },
    {
      "anonymous": false,
      "inputs": [
        {
          "indexed": true,
          "name": "account",
          "type": "address"
        }
      ],
      "name": "ConsumerAdded",
      "type": "event"
    },
    {
      "anonymous": false,
      "inputs": [
        {
          "indexed": true,
          "name": "account",
          "type": "address"
        }
      ],
      "name": "ConsumerRemoved",
      "type": "event"
    },
    {
      "anonymous": false,
      "inputs": [
        {
          "indexed": true,
          "name": "account",
          "type": "address"
        }
      ],
      "name": "CertifierAdded",
      "type": "event"
    },
    {
      "anonymous": false,
      "inputs": [
        {
          "indexed": true,
          "name": "account",
          "type": "address"
        }
      ],
      "name": "CertifierRemoved",
      "type": "event"
    },
    {
      "constant": false,
      "inputs": [],
      "name": "kill",
      "outputs": [],
      "payable": false,
      "stateMutability": "nonpayable",
      "type": "function"
    },
    {
      "constant": false,
      "inputs": [
        {
          "name": "_upc",
          "type": "uint256"
        },
        {
          "name": "ownerID",
          "type": "address"
        },
        {
          "name": "_originMinerID",
          "type": "address"
        },
        {
          "name": "_originMinerName",
          "type": "string"
        },
        {
          "name": "_diamondColor",
          "type": "string"
        },
        {
          "name": "_diamondLength",
          "type": "string"
        },
        {
          "name": "_diamondWidth",
          "type": "string"
        },
        {
          "name": "_diamondCarat",
          "type": "string"
        },
        {
          "name": "_diamondNotes",
          "type": "string"
        }
      ],
      "name": "mineDiamond",
      "outputs": [],
      "payable": false,
      "stateMutability": "nonpayable",
      "type": "function"
    },
    {
      "constant": false,
      "inputs": [
        {
          "name": "_upc",
          "type": "uint256"
        },
        {
          "name": "_price",
          "type": "uint256"
        }
      ],
      "name": "putRawDiamondForSale",
      "outputs": [],
      "payable": false,
      "stateMutability": "nonpayable",
      "type": "function"
    },
    {
      "constant": false,
      "inputs": [
        {
          "name": "_upc",
          "type": "uint256"
        }
      ],
      "name": "buyRawDiamond",
      "outputs": [],
      "payable": true,
      "stateMutability": "payable",
      "type": "function"
    },
    {
      "constant": false,
      "inputs": [
        {
          "name": "_upc",
          "type": "uint256"
        }
      ],
      "name": "polishDiamond",
      "outputs": [],
      "payable": false,
      "stateMutability": "nonpayable",
      "type": "function"
    },
    {
      "constant": false,
      "inputs": [
        {
          "name": "_upc",
          "type": "uint256"
        }
      ],
      "name": "certifyDiamond",
      "outputs": [],
      "payable": false,
      "stateMutability": "nonpayable",
      "type": "function"
    },
    {
      "constant": false,
      "inputs": [
        {
          "name": "_upc",
          "type": "uint256"
        },
        {
          "name": "_price",
          "type": "uint256"
        }
      ],
      "name": "addDiamondForAuction",
      "outputs": [],
      "payable": false,
      "stateMutability": "nonpayable",
      "type": "function"
    },
    {
      "constant": false,
      "inputs": [
        {
          "name": "_upc",
          "type": "uint256"
        }
      ],
      "name": "purchaseDiamond",
      "outputs": [],
      "payable": true,
      "stateMutability": "payable",
      "type": "function"
    },
    {
      "constant": true,
      "inputs": [
        {
          "name": "_upc",
          "type": "uint256"
        }
      ],
      "name": "fetchItemBufferOne",
      "outputs": [
        {
          "name": "itemSKU",
          "type": "uint256"
        },
        {
          "name": "itemUPC",
          "type": "uint256"
        },
        {
          "name": "ownerID",
          "type": "address"
        },
        {
          "name": "originMinerID",
          "type": "address"
        },
        {
          "name": "diamondColor",
          "type": "string"
        },
        {
          "name": "diamondLength",
          "type": "string"
        },
        {
          "name": "diamondWidth",
          "type": "string"
        },
        {
          "name": "diamondCarat",
          "type": "string"
        }
      ],
      "payable": false,
      "stateMutability": "view",
      "type": "function"
    },
    {
      "constant": true,
      "inputs": [
        {
          "name": "_upc",
          "type": "uint256"
        }
      ],
      "name": "fetchItemBufferTwo",
      "outputs": [
        {
          "name": "itemSKU",
          "type": "uint256"
        },
        {
          "name": "itemUPC",
          "type": "uint256"
        },
        {
          "name": "diamondID",
          "type": "uint256"
        },
        {
          "name": "diamondPrice",
          "type": "uint256"
        },
        {
          "name": "itemState",
          "type": "uint256"
        },
        {
          "name": "diamondNotes",
          "type": "string"
        },
        {
          "name": "jewellerID",
          "type": "address"
        },
        {
          "name": "certifierID",
          "type": "address"
        },
        {
          "name": "finalOwnerID",
          "type": "address"
        }
      ],
      "payable": false,
      "stateMutability": "view",
      "type": "function"
    }
  ],
  "bytecode": "0x60806040526200001e33620000c3640100000000026401000000009004565b62000038336200012d640100000000026401000000009004565b620000523362000197640100000000026401000000009004565b6200006c3362000201640100000000026401000000009004565b33600460006101000a81548173ffffffffffffffffffffffffffffffffffffffff021916908373ffffffffffffffffffffffffffffffffffffffff16021790555060016006819055506001600581905550620003c3565b620000e78160006200026b6401000000000262002455179091906401000000009004565b8073ffffffffffffffffffffffffffffffffffffffff167f9e685b594e54f370ef91382c0da443292b1378dec458f2a0d0009e7451547dab60405160405180910390a250565b620001518160016200026b6401000000000262002455179091906401000000009004565b8073ffffffffffffffffffffffffffffffffffffffff167f28b26e7a3d20aedbc5f8f2ebf7da671c0491723a2b78f47a097b0e46dee0714260405160405180910390a250565b620001bb8160026200026b6401000000000262002455179091906401000000009004565b8073ffffffffffffffffffffffffffffffffffffffff167f8822170bea86e96454f483ceee2e06476112c4279f6842fd6e0d7d29e10a8c9360405160405180910390a250565b620002258160036200026b6401000000000262002455179091906401000000009004565b8073ffffffffffffffffffffffffffffffffffffffff167f174847fbc976d2d8ecaced95d821f1d0be15b9a507f3ca3c6732d7662af4207e60405160405180910390a250565b600073ffffffffffffffffffffffffffffffffffffffff168173ffffffffffffffffffffffffffffffffffffffff1614151515620002a857600080fd5b620002c382826200032e640100000000026401000000009004565b151515620002d057600080fd5b60018260000160008373ffffffffffffffffffffffffffffffffffffffff1673ffffffffffffffffffffffffffffffffffffffff16815260200190815260200160002060006101000a81548160ff0219169083151502179055505050565b60008073ffffffffffffffffffffffffffffffffffffffff168273ffffffffffffffffffffffffffffffffffffffff16141515156200036c57600080fd5b8260000160008373ffffffffffffffffffffffffffffffffffffffff1673ffffffffffffffffffffffffffffffffffffffff16815260200190815260200160002060009054906101000a900460ff16905092915050565b61277c80620003d36000396000f300608060405260043610610128576000357c0100000000000000000000000000000000000000000000000000000000900463ffffffff168063112940f91461012d5780631c2353e114610170578063234000fd146101cb5780632b198366146101eb57806332acb6401461022e5780633db320aa1461043f57806341c0e1b51461047657806361e6982d1461048d57806366225ff9146104a4578063701b70ac1461060657806377c4591314610661578063834ff739146108bf57806390a8bb1f1461091a57806397f85eb11461094757806399d04f9e14610967578063ae46352a146109aa578063c16a8d29146109c1578063c177606814610a1c578063c9cb2d0414610a33578063dd3ed57914610a4a578063eca0520114610a77578063f3982e5e14610aae575b600080fd5b34801561013957600080fd5b5061016e600480360381019080803573ffffffffffffffffffffffffffffffffffffffff169060200190929190505050610af1565b005b34801561017c57600080fd5b506101b1600480360381019080803573ffffffffffffffffffffffffffffffffffffffff169060200190929190505050610b11565b604051808215151515815260200191505060405180910390f35b6101e960048036038101908080359060200190929190505050610b2e565b005b3480156101f757600080fd5b5061022c600480360381019080803573ffffffffffffffffffffffffffffffffffffffff169060200190929190505050610e41565b005b34801561023a57600080fd5b5061043d60048036038101908080359060200190929190803573ffffffffffffffffffffffffffffffffffffffff169060200190929190803573ffffffffffffffffffffffffffffffffffffffff169060200190929190803590602001908201803590602001908080601f0160208091040260200160405190810160405280939291908181526020018383808284378201915050505050509192919290803590602001908201803590602001908080601f0160208091040260200160405190810160405280939291908181526020018383808284378201915050505050509192919290803590602001908201803590602001908080601f0160208091040260200160405190810160405280939291908181526020018383808284378201915050505050509192919290803590602001908201803590602001908080601f0160208091040260200160405190810160405280939291908181526020018383808284378201915050505050509192919290803590602001908201803590602001908080601f0160208091040260200160405190810160405280939291908181526020018383808284378201915050505050509192919290803590602001908201803590602001908080601f0160208091040260200160405190810160405280939291908181526020018383808284378201915050505050509192919290505050610e61565b005b34801561044b57600080fd5b50610474600480360381019080803590602001909291908035906020019092919050505061122a565b005b34801561048257600080fd5b5061048b611316565b005b34801561049957600080fd5b506104a26113a9565b005b3480156104b057600080fd5b506104cf600480360381019080803590602001909291905050506113b4565b604051808a8152602001898152602001888152602001878152602001868152602001806020018573ffffffffffffffffffffffffffffffffffffffff1673ffffffffffffffffffffffffffffffffffffffff1681526020018473ffffffffffffffffffffffffffffffffffffffff1673ffffffffffffffffffffffffffffffffffffffff1681526020018373ffffffffffffffffffffffffffffffffffffffff1673ffffffffffffffffffffffffffffffffffffffff168152602001828103825286818151815260200191508051906020019080838360005b838110156105c35780820151818401526020810190506105a8565b50505050905090810190601f1680156105f05780820380516001836020036101000a031916815260200191505b509a505050505050505050505060405180910390f35b34801561061257600080fd5b50610647600480360381019080803573ffffffffffffffffffffffffffffffffffffffff1690602001909291905050506115dc565b604051808215151515815260200191505060405180910390f35b34801561066d57600080fd5b5061068c600480360381019080803590602001909291905050506115f9565b604051808981526020018881526020018773ffffffffffffffffffffffffffffffffffffffff1673ffffffffffffffffffffffffffffffffffffffff1681526020018673ffffffffffffffffffffffffffffffffffffffff1673ffffffffffffffffffffffffffffffffffffffff16815260200180602001806020018060200180602001858103855289818151815260200191508051906020019080838360005b8381101561074857808201518184015260208101905061072d565b50505050905090810190601f1680156107755780820380516001836020036101000a031916815260200191505b50858103845288818151815260200191508051906020019080838360005b838110156107ae578082015181840152602081019050610793565b50505050905090810190601f1680156107db5780820380516001836020036101000a031916815260200191505b50858103835287818151815260200191508051906020019080838360005b838110156108145780820151818401526020810190506107f9565b50505050905090810190601f1680156108415780820380516001836020036101000a031916815260200191505b50858103825286818151815260200191508051906020019080838360005b8381101561087a57808201518184015260208101905061085f565b50505050905090810190601f1680156108a75780820380516001836020036101000a031916815260200191505b509c5050505050505050505050505060405180910390f35b3480156108cb57600080fd5b50610900600480360381019080803573ffffffffffffffffffffffffffffffffffffffff169060200190929190505050611990565b604051808215151515815260200191505060405180910390f35b34801561092657600080fd5b50610945600480360381019080803590602001909291905050506119ad565b005b61096560048036038101908080359060200190929190505050611ae6565b005b34801561097357600080fd5b506109a8600480360381019080803573ffffffffffffffffffffffffffffffffffffffff169060200190929190505050611e62565b005b3480156109b657600080fd5b506109bf611e82565b005b3480156109cd57600080fd5b50610a02600480360381019080803573ffffffffffffffffffffffffffffffffffffffff169060200190929190505050611e8d565b604051808215151515815260200191505060405180910390f35b348015610a2857600080fd5b50610a31611eaa565b005b348015610a3f57600080fd5b50610a48611eb5565b005b348015610a5657600080fd5b50610a7560048036038101908080359060200190929190505050611ec0565b005b348015610a8357600080fd5b50610aac6004803603810190808035906020019092919080359060200190929190505050611fe5565b005b348015610aba57600080fd5b50610aef600480360381019080803573ffffffffffffffffffffffffffffffffffffffff1690602001909291905050506120d1565b005b610afa33611990565b1515610b0557600080fd5b610b0e816120f1565b50565b6000610b2782600061214b90919063ffffffff16565b9050919050565b8060056006811115610b3c57fe5b60076000838152602001908152602001600020600c0160009054906101000a900460ff166006811115610b6b57fe5b141515610b7757600080fd5b34803410151515610bf0576040517f08c379a000000000000000000000000000000000000000000000000000000000815260040180806020018281038252601c8152602001807f6d73672076616c7565206973206c657373207468616e2070726963650000000081525060200191505060405180910390fd5b82600080610bfd33611990565b1515610c0857600080fd5b600660076000888152602001908152602001600020600c0160006101000a81548160ff02191690836006811115610c3b57fe5b0217905550336007600088815260200190815260200160002060020160006101000a81548173ffffffffffffffffffffffffffffffffffffffff021916908373ffffffffffffffffffffffffffffffffffffffff1602179055503360076000888152602001908152602001600020600e0160006101000a81548173ffffffffffffffffffffffffffffffffffffffff021916908373ffffffffffffffffffffffffffffffffffffffff16021790555060076000878152602001908152602001600020600c0160019054906101000a900473ffffffffffffffffffffffffffffffffffffffff1673ffffffffffffffffffffffffffffffffffffffff166108fc349081150290604051600060405180830381858888f19350505050158015610d66573d6000803e3d6000fd5b507f653d56639fee6b566a5c804764e9689de38645f0b733df89a36a1b7b42173dd8866040518082815260200191505060405180910390a160076000848152602001908152602001600020600b0154915081340390506007600084815260200190815260200160002060020160009054906101000a900473ffffffffffffffffffffffffffffffffffffffff1673ffffffffffffffffffffffffffffffffffffffff166108fc829081150290604051600060405180830381858888f19350505050158015610e38573d6000803e3d6000fd5b50505050505050565b610e4a33610b11565b1515610e5557600080fd5b610e5e816121df565b50565b610e696125b4565b6102006040519081016040528060065481526020018b81526020018a73ffffffffffffffffffffffffffffffffffffffff1681526020018973ffffffffffffffffffffffffffffffffffffffff1681526020018881526020018781526020018681526020018581526020018481526020016006548c0181526020018381526020016000815260200160006006811115610efe57fe5b8152602001600073ffffffffffffffffffffffffffffffffffffffff168152602001600073ffffffffffffffffffffffffffffffffffffffff168152602001600073ffffffffffffffffffffffffffffffffffffffff16815250905060016006540160068190555080600760008c8152602001908152602001600020600082015181600001556020820151816001015560408201518160020160006101000a81548173ffffffffffffffffffffffffffffffffffffffff021916908373ffffffffffffffffffffffffffffffffffffffff16021790555060608201518160030160006101000a81548173ffffffffffffffffffffffffffffffffffffffff021916908373ffffffffffffffffffffffffffffffffffffffff16021790555060808201518160040190805190602001906110389291906126ab565b5060a08201518160050190805190602001906110559291906126ab565b5060c08201518160060190805190602001906110729291906126ab565b5060e082015181600701908051906020019061108f9291906126ab565b506101008201518160080190805190602001906110ad9291906126ab565b50610120820151816009015561014082015181600a0190805190602001906110d69291906126ab565b5061016082015181600b015561018082015181600c0160006101000a81548160ff0219169083600681111561110757fe5b02179055506101a082015181600c0160016101000a81548173ffffffffffffffffffffffffffffffffffffffff021916908373ffffffffffffffffffffffffffffffffffffffff1602179055506101c082015181600d0160006101000a81548173ffffffffffffffffffffffffffffffffffffffff021916908373ffffffffffffffffffffffffffffffffffffffff1602179055506101e082015181600e0160006101000a81548173ffffffffffffffffffffffffffffffffffffffff021916908373ffffffffffffffffffffffffffffffffffffffff1602179055509050507f4229d50c63dbdc5551dd68e0a9879b01ac250cb31feaeba7588533462e6c7aaa8a6040518082815260200191505060405180910390a150505050505050505050565b816004600681111561123857fe5b60076000838152602001908152602001600020600c0160009054906101000a900460ff16600681111561126757fe5b14151561127357600080fd5b61127c33611e8d565b151561128757600080fd5b600560076000858152602001908152602001600020600c0160006101000a81548160ff021916908360068111156112ba57fe5b02179055508160076000858152602001908152602001600020600b01819055507f3802b4c53cd90ec8bc4edc6e8b669e5af29378c730ac41882495b901dc33e6e9836040518082815260200191505060405180910390a1505050565b600460009054906101000a900473ffffffffffffffffffffffffffffffffffffffff1673ffffffffffffffffffffffffffffffffffffffff163373ffffffffffffffffffffffffffffffffffffffff1614156113a757600460009054906101000a900473ffffffffffffffffffffffffffffffffffffffff1673ffffffffffffffffffffffffffffffffffffffff16ff5b565b6113b233612239565b565b600080600080600060606000806000600760008b8152602001908152602001600020600001549850600760008b8152602001908152602001600020600101549750600760008b8152602001908152602001600020600901549650600760008b8152602001908152602001600020600b01549550600760008b8152602001908152602001600020600c0160009054906101000a900460ff16600681111561145657fe5b9450600760008b8152602001908152602001600020600a018054600181600116156101000203166002900480601f0160208091040260200160405190810160405280929190818152602001828054600181600116156101000203166002900480156115025780601f106114d757610100808354040283529160200191611502565b820191906000526020600020905b8154815290600101906020018083116114e557829003601f168201915b50505050509350600760008b8152602001908152602001600020600c0160019054906101000a900473ffffffffffffffffffffffffffffffffffffffff169250600760008b8152602001908152602001600020600d0160009054906101000a900473ffffffffffffffffffffffffffffffffffffffff169150600760008b8152602001908152602001600020600e0160009054906101000a900473ffffffffffffffffffffffffffffffffffffffff1690508888888888888888889850985098509850985098509850985098509193959799909294969850565b60006115f282600361214b90919063ffffffff16565b9050919050565b600080600080606080606080600760008a8152602001908152602001600020600001549750600760008a8152602001908152602001600020600101549650600760008a815260200190815260200160002060020160009054906101000a900473ffffffffffffffffffffffffffffffffffffffff169550600760008a815260200190815260200160002060030160009054906101000a900473ffffffffffffffffffffffffffffffffffffffff169450600760008a81526020019081526020016000206005018054600181600116156101000203166002900480601f0160208091040260200160405190810160405280929190818152602001828054600181600116156101000203166002900480156117535780601f1061172857610100808354040283529160200191611753565b820191906000526020600020905b81548152906001019060200180831161173657829003601f168201915b50505050509350600760008a81526020019081526020016000206006018054600181600116156101000203166002900480601f0160208091040260200160405190810160405280929190818152602001828054600181600116156101000203166002900480156118045780601f106117d957610100808354040283529160200191611804565b820191906000526020600020905b8154815290600101906020018083116117e757829003601f168201915b50505050509250600760008a81526020019081526020016000206007018054600181600116156101000203166002900480601f0160208091040260200160405190810160405280929190818152602001828054600181600116156101000203166002900480156118b55780601f1061188a576101008083540402835291602001916118b5565b820191906000526020600020905b81548152906001019060200180831161189857829003601f168201915b50505050509150600760008a81526020019081526020016000206008018054600181600116156101000203166002900480601f0160208091040260200160405190810160405280929190818152602001828054600181600116156101000203166002900480156119665780601f1061193b57610100808354040283529160200191611966565b820191906000526020600020905b81548152906001019060200180831161194957829003601f168201915b50505050509050878787878787878797509750975097509750975097509750919395975091939597565b60006119a682600161214b90919063ffffffff16565b9050919050565b80600260068111156119bb57fe5b60076000838152602001908152602001600020600c0160009054906101000a900460ff1660068111156119ea57fe5b141515611a5f576040517f08c379a000000000000000000000000000000000000000000000000000000000815260040180806020018281038252600f8152602001807f6469616d6f6e6420697320736f6c64000000000000000000000000000000000081525060200191505060405180910390fd5b611a6833611e8d565b1515611a7357600080fd5b600360076000848152602001908152602001600020600c0160006101000a81548160ff02191690836006811115611aa657fe5b02179055507f3515cea881852acd635a93aa5d2bf2b741ac5470c58f24fc2704db4bc9d8ac17826040518082815260200191505060405180910390a15050565b8060016006811115611af457fe5b60076000838152602001908152602001600020600c0160009054906101000a900460ff166006811115611b2357fe5b141515611b98576040517f08c379a00000000000000000000000000000000000000000000000000000000081526004018080602001828103825260128152602001807f6469616d6f6e6420697320666f7273616c65000000000000000000000000000081525060200191505060405180910390fd5b34803410151515611c11576040517f08c379a000000000000000000000000000000000000000000000000000000000815260040180806020018281038252601c8152602001807f6d73672076616c7565206973206c657373207468616e2070726963650000000081525060200191505060405180910390fd5b82600080611c1e33611e8d565b1515611c2957600080fd5b600260076000888152602001908152602001600020600c0160006101000a81548160ff02191690836006811115611c5c57fe5b0217905550336007600088815260200190815260200160002060020160006101000a81548173ffffffffffffffffffffffffffffffffffffffff021916908373ffffffffffffffffffffffffffffffffffffffff1602179055503360076000888152602001908152602001600020600c0160016101000a81548173ffffffffffffffffffffffffffffffffffffffff021916908373ffffffffffffffffffffffffffffffffffffffff1602179055506007600087815260200190815260200160002060030160009054906101000a900473ffffffffffffffffffffffffffffffffffffffff1673ffffffffffffffffffffffffffffffffffffffff166108fc349081150290604051600060405180830381858888f19350505050158015611d87573d6000803e3d6000fd5b507f92f64ca637d023f354075a4be751b169c1a8a9ccb6d33cdd0cb3520543995727866040518082815260200191505060405180910390a160076000848152602001908152602001600020600b0154915081340390506007600084815260200190815260200160002060020160009054906101000a900473ffffffffffffffffffffffffffffffffffffffff1673ffffffffffffffffffffffffffffffffffffffff166108fc829081150290604051600060405180830381858888f19350505050158015611e59573d6000803e3d6000fd5b50505050505050565b611e6b33611e8d565b1515611e7657600080fd5b611e7f81612293565b50565b611e8b336122ed565b565b6000611ea382600261214b90919063ffffffff16565b9050919050565b611eb333612347565b565b611ebe336123a1565b565b8060036006811115611ece57fe5b60076000838152602001908152602001600020600c0160009054906101000a900460ff166006811115611efd57fe5b141515611f0957600080fd5b611f1233610b11565b1515611f1d57600080fd5b600460076000848152602001908152602001600020600c0160006101000a81548160ff02191690836006811115611f5057fe5b02179055503360076000848152602001908152602001600020600d0160006101000a81548173ffffffffffffffffffffffffffffffffffffffff021916908373ffffffffffffffffffffffffffffffffffffffff1602179055507f4e8c48948db98a1fea8df39d874e32084414a172079b74467a267b66050069b5826040518082815260200191505060405180910390a15050565b8160006006811115611ff357fe5b60076000838152602001908152602001600020600c0160009054906101000a900460ff16600681111561202257fe5b14151561202e57600080fd5b612037336115dc565b151561204257600080fd5b600160076000858152602001908152602001600020600c0160006101000a81548160ff0219169083600681111561207557fe5b02179055508160076000858152602001908152602001600020600b01819055507fa96ae0fc3224ebd79eebfe54bd130cc9cb94416cddd1f2386115e00b72532468836040518082815260200191505060405180910390a1505050565b6120da336115dc565b15156120e557600080fd5b6120ee816123fb565b50565b61210581600161245590919063ffffffff16565b8073ffffffffffffffffffffffffffffffffffffffff167f28b26e7a3d20aedbc5f8f2ebf7da671c0491723a2b78f47a097b0e46dee0714260405160405180910390a250565b60008073ffffffffffffffffffffffffffffffffffffffff168273ffffffffffffffffffffffffffffffffffffffff161415151561218857600080fd5b8260000160008373ffffffffffffffffffffffffffffffffffffffff1673ffffffffffffffffffffffffffffffffffffffff16815260200190815260200160002060009054906101000a900460ff16905092915050565b6121f381600061245590919063ffffffff16565b8073ffffffffffffffffffffffffffffffffffffffff167f9e685b594e54f370ef91382c0da443292b1378dec458f2a0d0009e7451547dab60405160405180910390a250565b61224d81600161250590919063ffffffff16565b8073ffffffffffffffffffffffffffffffffffffffff167fe3f5ed5f263f1f01764a96edfc7d025f511ec5f7d180e8816908b78bcf74f09860405160405180910390a250565b6122a781600261245590919063ffffffff16565b8073ffffffffffffffffffffffffffffffffffffffff167f8822170bea86e96454f483ceee2e06476112c4279f6842fd6e0d7d29e10a8c9360405160405180910390a250565b61230181600361250590919063ffffffff16565b8073ffffffffffffffffffffffffffffffffffffffff167f5cc1994decde3269aa6e74a6ebaea65385d20e57613532d2a24a47233de42aa760405160405180910390a250565b61235b81600261250590919063ffffffff16565b8073ffffffffffffffffffffffffffffffffffffffff167f7e3afdbb6a6ac57f601590ffcc549ce2b25a2128ff6cdd6520333aa46bb044c360405160405180910390a250565b6123b581600061250590919063ffffffff16565b8073ffffffffffffffffffffffffffffffffffffffff167f45cee538c02c2ddcdfc31b5b9ab913c23f938f81483c880884d94694b2985a3360405160405180910390a250565b61240f81600361245590919063ffffffff16565b8073ffffffffffffffffffffffffffffffffffffffff167f174847fbc976d2d8ecaced95d821f1d0be15b9a507f3ca3c6732d7662af4207e60405160405180910390a250565b600073ffffffffffffffffffffffffffffffffffffffff168173ffffffffffffffffffffffffffffffffffffffff161415151561249157600080fd5b61249b828261214b565b1515156124a757600080fd5b60018260000160008373ffffffffffffffffffffffffffffffffffffffff1673ffffffffffffffffffffffffffffffffffffffff16815260200190815260200160002060006101000a81548160ff0219169083151502179055505050565b600073ffffffffffffffffffffffffffffffffffffffff168173ffffffffffffffffffffffffffffffffffffffff161415151561254157600080fd5b61254b828261214b565b151561255657600080fd5b60008260000160008373ffffffffffffffffffffffffffffffffffffffff1673ffffffffffffffffffffffffffffffffffffffff16815260200190815260200160002060006101000a81548160ff0219169083151502179055505050565b610200604051908101604052806000815260200160008152602001600073ffffffffffffffffffffffffffffffffffffffff168152602001600073ffffffffffffffffffffffffffffffffffffffff16815260200160608152602001606081526020016060815260200160608152602001606081526020016000815260200160608152602001600081526020016000600681111561264e57fe5b8152602001600073ffffffffffffffffffffffffffffffffffffffff168152602001600073ffffffffffffffffffffffffffffffffffffffff168152602001600073ffffffffffffffffffffffffffffffffffffffff1681525090565b828054600181600116156101000203166002900490600052602060002090601f016020900481019282601f106126ec57805160ff191683800117855561271a565b8280016001018555821561271a579182015b828111156127195782518255916020019190600101906126fe565b5b509050612727919061272b565b5090565b61274d91905b80821115612749576000816000905550600101612731565b5090565b905600a165627a7a7230582078cc9f9568d703ef4a088aed59347aed4a36af95d45cf0a2573626e4a1df71ca0029",
  "source": "pragma solidity ^0.4.24;\n// Define a contract 'Supplychain'\nimport \"../diamondaccesscontrol/CertifierRole.sol\";\nimport \"../diamondaccesscontrol/ConsumerRole.sol\";\nimport \"../diamondaccesscontrol/JewellerRole.sol\";\nimport \"../diamondaccesscontrol/MinerRole.sol\";\n\n\ncontract SupplyChain  is CertifierRole, ConsumerRole, JewellerRole, MinerRole {\n\n  // Define 'owner'\n  address owner;\n\n  // Define a variable called 'upc' for Universal Product Code (UPC)\n  uint  upc;\n\n  // Define a variable called 'sku' for Stock Keeping Unit (SKU)\n  uint  sku;\n\n  // Define a public mapping 'items' that maps the UPC to an Item.\n  mapping (uint => Diamond) diamonds;\n\n  // Define a public mapping 'itemsHistory' that maps the UPC to an array of TxHash, \n  // that track its journey through the supply chain -- to be sent from DApp.\n  mapping (uint => string[]) diamondsHistory;\n  \n  // Define enum 'State' with the following values:\n  enum State \n  { \n    Mined,      // 0\n    ForSale,    // 1  \n    Sold,       // 2\n    Polished,   // 3\n    Certified,  // 4\n    ForAuction, // 5\n    Purchased   // 6\n    }\n\n  State constant defaultState = State.Mined;\n\n  // Define a struct 'Item' with the following fields:\n  struct Diamond {\n    uint    sku;  // Stock Keeping Unit (SKU)\n    uint    upc; // Universal Product Code (UPC), generated by the miner, goes on the package, can be verified by the certifier\n    address ownerID;  // Metamask-Ethereum address of the current owner as the diamond moves through 8 stages\n    address originMinerID; // Metamask-Ethereum address of the Miner\n    string  originMinerName; // Miner Name\n    string  diamondColor;  // Diamond Color\n    string  diamondLength; // Diamond Length\n    string  diamondWidth;  // Diamond Width\n    string  diamondCarat;  // Diamond Carat\n    uint    diamondID;  // Diamond ID potentially a combination of upc + sku\n    string  diamondNotes; // Diamond Notes\n    uint    diamondPrice; // Product Price\n    State   itemState;  // Diamond State as represented in the enum above\n    address jewellerID;  // Metamask-Ethereum address of the jeweller\n    address certifierID; // Metamask-Ethereum address of the certifier\n    address finalOwnerID; // Metamask-Ethereum address of the buyer\n  }\n\n  // Define 8 events with the same 8 state values and accept 'upc' as input argument\n  event Mined(uint upc);\n  event ForSale(uint upc);\n  event Sold(uint upc);\n  event Polished(uint upc);\n  event Certified(uint upc);\n  event ForAuction(uint upc);\n  event Purchased(uint upc);\n\n  // Define a modifer that checks to see if msg.sender == owner of the contract\n  modifier onlyOwner() {\n    require(msg.sender == owner, \"this may not be owner\");\n    _;\n  }\n\n  // Define a modifer that verifies the Caller\n  modifier verifyCaller (address _address) {\n    require(msg.sender == _address, \"checking caller\"); \n    _;\n  }\n\n  // Define a modifier that checks if the paid amount is sufficient to cover the price\n  modifier paidEnough(uint _price) { \n    require(msg.value >= _price, \"msg value is less than price\"); \n    _;\n  }\n  \n  // Define a modifier that checks the price and refunds the remaining balance\n  modifier checkValue(uint _upc) {\n    _;\n    uint _price = diamonds[_upc].diamondPrice;\n    uint amountToReturn = msg.value - _price;\n    diamonds[_upc].ownerID.transfer(amountToReturn);\n  }\n\n  // Define a modifier that checks if an item.state of a upc is mined\n  modifier mined(uint _upc) {\n    require(diamonds[_upc].itemState == State.Mined);\n    _;\n  }\n\n  // Define a modifier that checks if an item.state of a upc is forSale\n  modifier forSale(uint _upc) {\n    require(diamonds[_upc].itemState == State.ForSale, \"diamond is forsale\");\n    _;\n  }\n  \n  // Define a modifier that checks if an item.state of a upc is sold\n  modifier sold(uint _upc) {\n    require(diamonds[_upc].itemState == State.Sold, \"diamond is sold\");\n    _;\n  }\n\n  // Define a modifier that checks if an item.state of a upc is polished\n  modifier polished(uint _upc) {\n    require(diamonds[_upc].itemState == State.Polished);\n    _;\n  }\n\n  // Define a modifier that checks if an item.state of a upc is certified\n  modifier certified(uint _upc) {\n    require(diamonds[_upc].itemState == State.Certified);\n    _;\n  }\n  \n  // Define a modifier that checks if an item.state of a upc is for auction\n  modifier forAuction(uint _upc) {\n    require(diamonds[_upc].itemState == State.ForAuction);\n    _;\n  }\n\n  // Define a modifier that checks if an item.state of a upc is Purchased\n  modifier purchased(uint _upc) {\n    require(diamonds[_upc].itemState == State.Purchased);\n    _;\n  }\n\n  // In the constructor set 'owner' to the address that instantiated the contract\n  // and set 'sku' to 1\n  // and set 'upc' to 1\n  constructor() public payable {\n    owner = msg.sender;\n    sku = 1;\n    upc = 1;\n  }\n\n  // Define a function 'kill' if required\n  function kill() public {\n    if (msg.sender == owner) {\n      selfdestruct(owner);\n    }\n  }\n\n  // Define a function 'mineDiamond' that allows a farmer to mark an item 'mined'\n  function mineDiamond(uint _upc, address ownerID, address _originMinerID, string _originMinerName, string  _diamondColor, string  _diamondLength, string  _diamondWidth, string _diamondCarat, string _diamondNotes) public \n  {\n    // Add the new item as part of mine\n    \n    Diamond memory newDiamond = Diamond( sku,_upc, ownerID, _originMinerID, _originMinerName,_diamondColor, _diamondLength, _diamondWidth,_diamondCarat, _upc+ sku, _diamondNotes,0,State.Mined, 0x0,0x0,0x0);\n\n    // Increment sku\n    sku = sku + 1;\n    // Emit the appropriate event\n    \n    diamonds[_upc] = newDiamond;\n\n    emit Mined(_upc);\n  }\n\n  // Define a function 'processtItem' that allows a farmer to mark an item 'Processed'\n  function putRawDiamondForSale(uint _upc, uint _price) public mined(_upc)  onlyMiner()\n  // Call modifier to check if upc has passed previous supply chain stage  \n  // Call modifier to verify caller of this function  \n  {\n    // Update the appropriate fields\n    diamonds[_upc].itemState = State.ForSale;\n    diamonds[_upc].diamondPrice = _price;\n        \n    // Emit the appropriate event\n    emit ForSale(_upc);\n  }\n\n  // Define a function 'buyItem' that allows the disributor to mark an item 'Sold'\n  // Use the above defined modifiers to check if the item is available for sale, if the buyer has paid enough, \n  // and any excess ether sent is refunded back to the buyer\n  function buyRawDiamond(uint _upc) public payable  forSale(_upc) paidEnough(msg.value)  checkValue(_upc) onlyJeweller()\n    // Call modifier to check if upc has passed previous supply chain stage    \n    // Call modifer to check if buyer has paid enough    \n    // Call modifer to send any excess ether back to buyer    \n    {\n      // Update the appropriate fields - ownerID, distributorID, itemState\n      diamonds[_upc].itemState = State.Sold;\n      diamonds[_upc].ownerID = msg.sender;\n      diamonds[_upc].jewellerID = msg.sender;\n     \n      // Transfer money to farmer\n      diamonds[_upc].originMinerID.transfer(msg.value);\n    \n      // emit the appropriate event\n      emit Sold(_upc);\n      \n    }\n\n  // Define a function 'sellItem' that allows a farmer to mark an item 'ForSale'\n  function polishDiamond(uint _upc) public sold(_upc) onlyJeweller()\n  // Call modifier to check if upc has passed previous supply chain stage  \n  // Call modifier to verify caller of this function  \n  {\n    // Update the appropriate fields\n      diamonds[_upc].itemState = State.Polished;\n      //diamonds[_upc].ownerID = msg.sender;\n     // diamonds[_upc].certifierID = msg.sender;\n    \n    // Emit the appropriate event\n    emit Polished(_upc);\n    \n  }\n\n  // Define a function 'buyItem' that allows the disributor to mark an item 'Sold'\n  // Use the above defined modifiers to check if the item is available for sale, if the buyer has paid enough, \n  // and any excess ether sent is refunded back to the buyer\n  function certifyDiamond(uint _upc) public polished(_upc) onlyCertifier() \n  // Call modifier to check if upc has passed previous supply chain stage  \n  // Call modifier to verify caller of this function    \n    {\n      // Update the appropriate fields\n      diamonds[_upc].itemState = State.Certified;\n      diamonds[_upc].certifierID = msg.sender;\n      // Emit the appropriate event    \n      emit Certified(_upc);\n    }\n\n  // Define a function 'shipItem' that allows the distributor to mark an item 'Shipped'\n  // Use the above modifers to check if the item is sold\n  function addDiamondForAuction(uint _upc, uint _price) public certified(_upc)  onlyJeweller()\n    // Call modifier to check if upc has passed previous supply chain stage    \n    // Call modifier to verify caller of this function    \n    {\n      // Update the appropriate fields\n      diamonds[_upc].itemState = State.ForAuction;\n      diamonds[_upc].diamondPrice = _price;\n\n      // Emit the appropriate event\n      emit ForAuction(_upc);\n    \n    }\n\n  // Define a function 'receiveItem' that allows the retailer to mark an item 'Received'\n  // Use the above modifiers to check if the item is shipped\n  function purchaseDiamond(uint _upc) public payable forAuction(_upc) paidEnough(msg.value)  checkValue(_upc) onlyConsumer()\n    // Call modifier to check if upc has passed previous supply chain stage    \n    // Access Control List enforced by calling Smart Contract / DApp\n    {\n    // Update the appropriate fields - ownerID, retailerID, itemState\n    diamonds[_upc].itemState = State.Purchased;\n    diamonds[_upc].ownerID = msg.sender;\n    diamonds[_upc].finalOwnerID = msg.sender;\n\n    diamonds[_upc].jewellerID.transfer(msg.value);\n\n    // Emit the appropriate event\n    emit Purchased(_upc);\n\n    \n  }\n\n\n  // Define a function 'fetchItemBufferOne' that fetches the data\n  function fetchItemBufferOne(uint _upc) public view returns \n  (\n  uint    itemSKU,\n  uint    itemUPC,\n  address ownerID,\n  address originMinerID,\n  string  diamondColor,    \n  string  diamondLength,\n  string  diamondWidth,    \n  string  diamondCarat\n  \n  ) \n  {\n  // Assign values to the 8 parameters\n  \n    itemSKU = diamonds[_upc].sku;\n    itemUPC = diamonds[_upc].upc;\n    ownerID = diamonds[_upc].ownerID;\n    originMinerID = diamonds[_upc].originMinerID;\n    diamondColor = diamonds[_upc].diamondColor;\n    diamondLength = diamonds[_upc].diamondLength;\n    diamondWidth = diamonds[_upc].diamondWidth;\n    diamondCarat = diamonds[_upc].diamondCarat;\n\n  return \n  (\n  itemSKU,\n  itemUPC,\n  ownerID,\n  originMinerID,\n  diamondColor,    \n  diamondLength,\n  diamondWidth,    \n  diamondCarat\n  );\n  }\n\n  // Define a function 'fetchItemBufferTwo' that fetches the data\n  function fetchItemBufferTwo(uint _upc) public view returns \n  (\n  uint    itemSKU,\n  uint    itemUPC,\n  uint    diamondID,\n  uint    diamondPrice,\n  uint    itemState,\n  string  diamondNotes,\n  address jewellerID,\n  address certifierID,\n  address finalOwnerID\n  ) \n  {\n    // Assign values to the 9 parameters\n    itemSKU = diamonds[_upc].sku;\n    itemUPC = diamonds[_upc].upc;\n    diamondID = diamonds[_upc].diamondID;\n    diamondPrice = diamonds[_upc].diamondPrice;\n    itemState = uint(diamonds[_upc].itemState);\n    diamondNotes = diamonds[_upc].diamondNotes;\n    jewellerID = diamonds[_upc].jewellerID;\n    certifierID = diamonds[_upc].certifierID;\n    finalOwnerID = diamonds[_upc].finalOwnerID;\n \n    \n  return \n  (\n  itemSKU,\n  itemUPC,\n  diamondID,\n  diamondPrice,  \n  itemState,\n  diamondNotes,\n  jewellerID,\n  certifierID,\n  finalOwnerID\n  );\n  }\n}\n",
  "sourcePath": "C:\\Swati\\BlockChain\\Project6\\contracts\\diamondbase\\SupplyChain.sol",
  "compiler": {
    "name": "solc",
    "version": "0.4.24+commit.e67f0147.Emscripten.clang"
  },
  "schemaVersion": "2.0.1",
  "updatedAt": "2019-03-10T17:05:52.882Z"
}