{
  "contractName": "SupplyChain",
  "abi": [
    {
      "constant": false,
      "inputs": [
        {
          "name": "account",
          "type": "address"
        }
      ],
      "name": "addConsumer",
      "outputs": [],
      "payable": false,
      "stateMutability": "nonpayable",
      "type": "function"
    },
    {
      "constant": true,
      "inputs": [
        {
          "name": "account",
          "type": "address"
        }
      ],
      "name": "isCertifier",
      "outputs": [
        {
          "name": "",
          "type": "bool"
        }
      ],
      "payable": false,
      "stateMutability": "view",
      "type": "function"
    },
    {
      "constant": false,
      "inputs": [
        {
          "name": "account",
          "type": "address"
        }
      ],
      "name": "addCertifier",
      "outputs": [],
      "payable": false,
      "stateMutability": "nonpayable",
      "type": "function"
    },
    {
      "constant": false,
      "inputs": [],
      "name": "renounceConsumer",
      "outputs": [],
      "payable": false,
      "stateMutability": "nonpayable",
      "type": "function"
    },
    {
      "constant": true,
      "inputs": [
        {
          "name": "account",
          "type": "address"
        }
      ],
      "name": "isMiner",
      "outputs": [
        {
          "name": "",
          "type": "bool"
        }
      ],
      "payable": false,
      "stateMutability": "view",
      "type": "function"
    },
    {
      "constant": false,
      "inputs": [],
      "name": "renounceOwnership",
      "outputs": [],
      "payable": false,
      "stateMutability": "nonpayable",
      "type": "function"
    },
    {
      "constant": true,
      "inputs": [
        {
          "name": "account",
          "type": "address"
        }
      ],
      "name": "isConsumer",
      "outputs": [
        {
          "name": "",
          "type": "bool"
        }
      ],
      "payable": false,
      "stateMutability": "view",
      "type": "function"
    },
    {
      "constant": true,
      "inputs": [],
      "name": "isOwner",
      "outputs": [
        {
          "name": "",
          "type": "bool"
        }
      ],
      "payable": false,
      "stateMutability": "view",
      "type": "function"
    },
    {
      "constant": true,
      "inputs": [],
      "name": "ownerAddress",
      "outputs": [
        {
          "name": "",
          "type": "address"
        }
      ],
      "payable": false,
      "stateMutability": "view",
      "type": "function"
    },
    {
      "constant": false,
      "inputs": [
        {
          "name": "account",
          "type": "address"
        }
      ],
      "name": "addJeweller",
      "outputs": [],
      "payable": false,
      "stateMutability": "nonpayable",
      "type": "function"
    },
    {
      "constant": false,
      "inputs": [],
      "name": "renounceMiner",
      "outputs": [],
      "payable": false,
      "stateMutability": "nonpayable",
      "type": "function"
    },
    {
      "constant": true,
      "inputs": [
        {
          "name": "account",
          "type": "address"
        }
      ],
      "name": "isJeweller",
      "outputs": [
        {
          "name": "",
          "type": "bool"
        }
      ],
      "payable": false,
      "stateMutability": "view",
      "type": "function"
    },
    {
      "constant": false,
      "inputs": [],
      "name": "renounceJeweller",
      "outputs": [],
      "payable": false,
      "stateMutability": "nonpayable",
      "type": "function"
    },
    {
      "constant": false,
      "inputs": [],
      "name": "renounceCertifier",
      "outputs": [],
      "payable": false,
      "stateMutability": "nonpayable",
      "type": "function"
    },
    {
      "constant": false,
      "inputs": [
        {
          "name": "newOwner",
          "type": "address"
        }
      ],
      "name": "transferOwnership",
      "outputs": [],
      "payable": false,
      "stateMutability": "nonpayable",
      "type": "function"
    },
    {
      "constant": false,
      "inputs": [
        {
          "name": "account",
          "type": "address"
        }
      ],
      "name": "addMiner",
      "outputs": [],
      "payable": false,
      "stateMutability": "nonpayable",
      "type": "function"
    },
    {
      "inputs": [],
      "payable": true,
      "stateMutability": "payable",
      "type": "constructor"
    },
    {
      "anonymous": false,
      "inputs": [
        {
          "indexed": false,
          "name": "upc",
          "type": "uint256"
        }
      ],
      "name": "Mined",
      "type": "event"
    },
    {
      "anonymous": false,
      "inputs": [
        {
          "indexed": false,
          "name": "upc",
          "type": "uint256"
        }
      ],
      "name": "ForSale",
      "type": "event"
    },
    {
      "anonymous": false,
      "inputs": [
        {
          "indexed": false,
          "name": "upc",
          "type": "uint256"
        }
      ],
      "name": "Sold",
      "type": "event"
    },
    {
      "anonymous": false,
      "inputs": [
        {
          "indexed": false,
          "name": "upc",
          "type": "uint256"
        }
      ],
      "name": "Polished",
      "type": "event"
    },
    {
      "anonymous": false,
      "inputs": [
        {
          "indexed": false,
          "name": "upc",
          "type": "uint256"
        }
      ],
      "name": "Certified",
      "type": "event"
    },
    {
      "anonymous": false,
      "inputs": [
        {
          "indexed": false,
          "name": "upc",
          "type": "uint256"
        }
      ],
      "name": "ForAuction",
      "type": "event"
    },
    {
      "anonymous": false,
      "inputs": [
        {
          "indexed": false,
          "name": "upc",
          "type": "uint256"
        }
      ],
      "name": "Purchased",
      "type": "event"
    },
    {
      "anonymous": false,
      "inputs": [
        {
          "indexed": true,
          "name": "oldOwner",
          "type": "address"
        },
        {
          "indexed": true,
          "name": "newOwner",
          "type": "address"
        }
      ],
      "name": "TransferOwnership",
      "type": "event"
    },
    {
      "anonymous": false,
      "inputs": [
        {
          "indexed": true,
          "name": "account",
          "type": "address"
        }
      ],
      "name": "MinerAdded",
      "type": "event"
    },
    {
      "anonymous": false,
      "inputs": [
        {
          "indexed": true,
          "name": "account",
          "type": "address"
        }
      ],
      "name": "MinerRemoved",
      "type": "event"
    },
    {
      "anonymous": false,
      "inputs": [
        {
          "indexed": true,
          "name": "account",
          "type": "address"
        }
      ],
      "name": "JewellerAdded",
      "type": "event"
    },
    {
      "anonymous": false,
      "inputs": [
        {
          "indexed": true,
          "name": "account",
          "type": "address"
        }
      ],
      "name": "JewellerRemoved",
      "type": "event"
    },
    {
      "anonymous": false,
      "inputs": [
        {
          "indexed": true,
          "name": "account",
          "type": "address"
        }
      ],
      "name": "ConsumerAdded",
      "type": "event"
    },
    {
      "anonymous": false,
      "inputs": [
        {
          "indexed": true,
          "name": "account",
          "type": "address"
        }
      ],
      "name": "ConsumerRemoved",
      "type": "event"
    },
    {
      "anonymous": false,
      "inputs": [
        {
          "indexed": true,
          "name": "account",
          "type": "address"
        }
      ],
      "name": "CertifierAdded",
      "type": "event"
    },
    {
      "anonymous": false,
      "inputs": [
        {
          "indexed": true,
          "name": "account",
          "type": "address"
        }
      ],
      "name": "CertifierRemoved",
      "type": "event"
    },
    {
      "constant": false,
      "inputs": [],
      "name": "kill",
      "outputs": [],
      "payable": false,
      "stateMutability": "nonpayable",
      "type": "function"
    },
    {
      "constant": false,
      "inputs": [
        {
          "name": "_upc",
          "type": "uint256"
        },
        {
          "name": "ownerID",
          "type": "address"
        },
        {
          "name": "_originMinerID",
          "type": "address"
        },
        {
          "name": "_originMinerName",
          "type": "string"
        },
        {
          "name": "_diamondColor",
          "type": "string"
        },
        {
          "name": "_diamondLength",
          "type": "string"
        },
        {
          "name": "_diamondWidth",
          "type": "string"
        },
        {
          "name": "_diamondCarat",
          "type": "string"
        },
        {
          "name": "_diamondNotes",
          "type": "string"
        }
      ],
      "name": "mineDiamond",
      "outputs": [],
      "payable": false,
      "stateMutability": "nonpayable",
      "type": "function"
    },
    {
      "constant": false,
      "inputs": [
        {
          "name": "_upc",
          "type": "uint256"
        },
        {
          "name": "_price",
          "type": "uint256"
        }
      ],
      "name": "putRawDiamondForSale",
      "outputs": [],
      "payable": false,
      "stateMutability": "nonpayable",
      "type": "function"
    },
    {
      "constant": false,
      "inputs": [
        {
          "name": "_upc",
          "type": "uint256"
        }
      ],
      "name": "buyRawDiamond",
      "outputs": [],
      "payable": true,
      "stateMutability": "payable",
      "type": "function"
    },
    {
      "constant": false,
      "inputs": [
        {
          "name": "_upc",
          "type": "uint256"
        }
      ],
      "name": "polishDiamond",
      "outputs": [],
      "payable": false,
      "stateMutability": "nonpayable",
      "type": "function"
    },
    {
      "constant": false,
      "inputs": [
        {
          "name": "_upc",
          "type": "uint256"
        }
      ],
      "name": "certifyDiamond",
      "outputs": [],
      "payable": false,
      "stateMutability": "nonpayable",
      "type": "function"
    },
    {
      "constant": false,
      "inputs": [
        {
          "name": "_upc",
          "type": "uint256"
        },
        {
          "name": "_price",
          "type": "uint256"
        }
      ],
      "name": "addDiamondForAuction",
      "outputs": [],
      "payable": false,
      "stateMutability": "nonpayable",
      "type": "function"
    },
    {
      "constant": false,
      "inputs": [
        {
          "name": "_upc",
          "type": "uint256"
        }
      ],
      "name": "purchaseDiamond",
      "outputs": [],
      "payable": true,
      "stateMutability": "payable",
      "type": "function"
    },
    {
      "constant": true,
      "inputs": [
        {
          "name": "_upc",
          "type": "uint256"
        }
      ],
      "name": "fetchItemBufferOne",
      "outputs": [
        {
          "name": "itemSKU",
          "type": "uint256"
        },
        {
          "name": "itemUPC",
          "type": "uint256"
        },
        {
          "name": "ownerID",
          "type": "address"
        },
        {
          "name": "originMinerID",
          "type": "address"
        },
        {
          "name": "diamondColor",
          "type": "string"
        },
        {
          "name": "diamondLength",
          "type": "string"
        },
        {
          "name": "diamondWidth",
          "type": "string"
        },
        {
          "name": "diamondCarat",
          "type": "string"
        }
      ],
      "payable": false,
      "stateMutability": "view",
      "type": "function"
    },
    {
      "constant": true,
      "inputs": [
        {
          "name": "_upc",
          "type": "uint256"
        }
      ],
      "name": "fetchItemBufferTwo",
      "outputs": [
        {
          "name": "itemSKU",
          "type": "uint256"
        },
        {
          "name": "itemUPC",
          "type": "uint256"
        },
        {
          "name": "diamondID",
          "type": "uint256"
        },
        {
          "name": "diamondPrice",
          "type": "uint256"
        },
        {
          "name": "itemState",
          "type": "uint256"
        },
        {
          "name": "diamondNotes",
          "type": "string"
        },
        {
          "name": "jewellerID",
          "type": "address"
        },
        {
          "name": "certifierID",
          "type": "address"
        },
        {
          "name": "finalOwnerID",
          "type": "address"
        }
      ],
      "payable": false,
      "stateMutability": "view",
      "type": "function"
    }
  ],
  "bytecode": "0x60806040526200001e3362000181640100000000026401000000009004565b6200003833620001eb640100000000026401000000009004565b620000523362000255640100000000026401000000009004565b6200006c33620002bf640100000000026401000000009004565b33600460006101000a81548173ffffffffffffffffffffffffffffffffffffffff021916908373ffffffffffffffffffffffffffffffffffffffff160217905550600460009054906101000a900473ffffffffffffffffffffffffffffffffffffffff1673ffffffffffffffffffffffffffffffffffffffff16600073ffffffffffffffffffffffffffffffffffffffff167f5c486528ec3e3f0ea91181cff8116f02bfa350e03b8b6f12e00765adbb5af85c60405160405180910390a333600560006101000a81548173ffffffffffffffffffffffffffffffffffffffff021916908373ffffffffffffffffffffffffffffffffffffffff1602179055506001600781905550600160068190555062000481565b620001a5816000620003296401000000000262002bf3179091906401000000009004565b8073ffffffffffffffffffffffffffffffffffffffff167f9e685b594e54f370ef91382c0da443292b1378dec458f2a0d0009e7451547dab60405160405180910390a250565b6200020f816001620003296401000000000262002bf3179091906401000000009004565b8073ffffffffffffffffffffffffffffffffffffffff167f28b26e7a3d20aedbc5f8f2ebf7da671c0491723a2b78f47a097b0e46dee0714260405160405180910390a250565b62000279816002620003296401000000000262002bf3179091906401000000009004565b8073ffffffffffffffffffffffffffffffffffffffff167f8822170bea86e96454f483ceee2e06476112c4279f6842fd6e0d7d29e10a8c9360405160405180910390a250565b620002e3816003620003296401000000000262002bf3179091906401000000009004565b8073ffffffffffffffffffffffffffffffffffffffff167f174847fbc976d2d8ecaced95d821f1d0be15b9a507f3ca3c6732d7662af4207e60405160405180910390a250565b600073ffffffffffffffffffffffffffffffffffffffff168173ffffffffffffffffffffffffffffffffffffffff16141515156200036657600080fd5b620003818282620003ec640100000000026401000000009004565b1515156200038e57600080fd5b60018260000160008373ffffffffffffffffffffffffffffffffffffffff1673ffffffffffffffffffffffffffffffffffffffff16815260200190815260200160002060006101000a81548160ff0219169083151502179055505050565b60008073ffffffffffffffffffffffffffffffffffffffff168273ffffffffffffffffffffffffffffffffffffffff16141515156200042a57600080fd5b8260000160008373ffffffffffffffffffffffffffffffffffffffff1673ffffffffffffffffffffffffffffffffffffffff16815260200190815260200160002060009054906101000a900460ff16905092915050565b612f1a80620004916000396000f300608060405260043610610154576000357c0100000000000000000000000000000000000000000000000000000000900463ffffffff168063112940f9146101595780631c2353e11461019c578063234000fd146101f75780632b1983661461021757806332acb6401461025a5780633db320aa1461046b57806341c0e1b5146104a257806361e6982d146104b957806366225ff9146104d0578063701b70ac14610632578063715018a61461068d57806377c45913146106a4578063834ff739146109025780638f32d59b1461095d5780638f84aa091461098c57806390a8bb1f146109e357806397f85eb114610a1057806399d04f9e14610a30578063ae46352a14610a73578063c16a8d2914610a8a578063c177606814610ae5578063c9cb2d0414610afc578063dd3ed57914610b13578063eca0520114610b40578063f2fde38b14610b77578063f3982e5e14610bba575b600080fd5b34801561016557600080fd5b5061019a600480360381019080803573ffffffffffffffffffffffffffffffffffffffff169060200190929190505050610bfd565b005b3480156101a857600080fd5b506101dd600480360381019080803573ffffffffffffffffffffffffffffffffffffffff169060200190929190505050610c1d565b604051808215151515815260200191505060405180910390f35b61021560048036038101908080359060200190929190505050610c3a565b005b34801561022357600080fd5b50610258600480360381019080803573ffffffffffffffffffffffffffffffffffffffff169060200190929190505050610f63565b005b34801561026657600080fd5b5061046960048036038101908080359060200190929190803573ffffffffffffffffffffffffffffffffffffffff169060200190929190803573ffffffffffffffffffffffffffffffffffffffff169060200190929190803590602001908201803590602001908080601f0160208091040260200160405190810160405280939291908181526020018383808284378201915050505050509192919290803590602001908201803590602001908080601f0160208091040260200160405190810160405280939291908181526020018383808284378201915050505050509192919290803590602001908201803590602001908080601f0160208091040260200160405190810160405280939291908181526020018383808284378201915050505050509192919290803590602001908201803590602001908080601f0160208091040260200160405190810160405280939291908181526020018383808284378201915050505050509192919290803590602001908201803590602001908080601f0160208091040260200160405190810160405280939291908181526020018383808284378201915050505050509192919290803590602001908201803590602001908080601f0160208091040260200160405190810160405280939291908181526020018383808284378201915050505050509192919290505050610f83565b005b34801561047757600080fd5b506104a0600480360381019080803590602001909291908035906020019092919050505061134c565b005b3480156104ae57600080fd5b506104b7611513565b005b3480156104c557600080fd5b506104ce6115a6565b005b3480156104dc57600080fd5b506104fb600480360381019080803590602001909291905050506115b1565b604051808a8152602001898152602001888152602001878152602001868152602001806020018573ffffffffffffffffffffffffffffffffffffffff1673ffffffffffffffffffffffffffffffffffffffff1681526020018473ffffffffffffffffffffffffffffffffffffffff1673ffffffffffffffffffffffffffffffffffffffff1681526020018373ffffffffffffffffffffffffffffffffffffffff1673ffffffffffffffffffffffffffffffffffffffff168152602001828103825286818151815260200191508051906020019080838360005b838110156105ef5780820151818401526020810190506105d4565b50505050905090810190601f16801561061c5780820380516001836020036101000a031916815260200191505b509a505050505050505050505060405180910390f35b34801561063e57600080fd5b50610673600480360381019080803573ffffffffffffffffffffffffffffffffffffffff1690602001909291905050506117d9565b604051808215151515815260200191505060405180910390f35b34801561069957600080fd5b506106a26117f6565b005b3480156106b057600080fd5b506106cf6004803603810190808035906020019092919050505061197c565b604051808981526020018881526020018773ffffffffffffffffffffffffffffffffffffffff1673ffffffffffffffffffffffffffffffffffffffff1681526020018673ffffffffffffffffffffffffffffffffffffffff1673ffffffffffffffffffffffffffffffffffffffff16815260200180602001806020018060200180602001858103855289818151815260200191508051906020019080838360005b8381101561078b578082015181840152602081019050610770565b50505050905090810190601f1680156107b85780820380516001836020036101000a031916815260200191505b50858103845288818151815260200191508051906020019080838360005b838110156107f15780820151818401526020810190506107d6565b50505050905090810190601f16801561081e5780820380516001836020036101000a031916815260200191505b50858103835287818151815260200191508051906020019080838360005b8381101561085757808201518184015260208101905061083c565b50505050905090810190601f1680156108845780820380516001836020036101000a031916815260200191505b50858103825286818151815260200191508051906020019080838360005b838110156108bd5780820151818401526020810190506108a2565b50505050905090810190601f1680156108ea5780820380516001836020036101000a031916815260200191505b509c5050505050505050505050505060405180910390f35b34801561090e57600080fd5b50610943600480360381019080803573ffffffffffffffffffffffffffffffffffffffff169060200190929190505050611d13565b604051808215151515815260200191505060405180910390f35b34801561096957600080fd5b50610972611d30565b604051808215151515815260200191505060405180910390f35b34801561099857600080fd5b506109a1611d88565b604051808273ffffffffffffffffffffffffffffffffffffffff1673ffffffffffffffffffffffffffffffffffffffff16815260200191505060405180910390f35b3480156109ef57600080fd5b50610a0e60048036038101908080359060200190929190505050611db2565b005b610a2e60048036038101908080359060200190929190505050611fc6565b005b348015610a3c57600080fd5b50610a71600480360381019080803573ffffffffffffffffffffffffffffffffffffffff169060200190929190505050612358565b005b348015610a7f57600080fd5b50610a88612378565b005b348015610a9657600080fd5b50610acb600480360381019080803573ffffffffffffffffffffffffffffffffffffffff169060200190929190505050612383565b604051808215151515815260200191505060405180910390f35b348015610af157600080fd5b50610afa6123a0565b005b348015610b0857600080fd5b50610b116123ab565b005b348015610b1f57600080fd5b50610b3e600480360381019080803590602001909291905050506123b6565b005b348015610b4c57600080fd5b50610b7560048036038101908080359060200190929190803590602001909291905050506124db565b005b348015610b8357600080fd5b50610bb8600480360381019080803573ffffffffffffffffffffffffffffffffffffffff1690602001909291905050506126a2565b005b348015610bc657600080fd5b50610bfb600480360381019080803573ffffffffffffffffffffffffffffffffffffffff169060200190929190505050612773565b005b610c0633611d13565b1515610c1157600080fd5b610c1a81612793565b50565b6000610c338260006127ed90919063ffffffff16565b9050919050565b8060056006811115610c4857fe5b60086000838152602001908152602001600020600c0160009054906101000a900460ff166006811115610c7757fe5b141515610c8357600080fd5b34803410151515610cfc576040517f08c379a000000000000000000000000000000000000000000000000000000000815260040180806020018281038252601c8152602001807f6d73672076616c7565206973206c657373207468616e2070726963650000000081525060200191505060405180910390fd5b82600080610d0933611d13565b1515610d1457600080fd5b600660086000888152602001908152602001600020600c0160006101000a81548160ff02191690836006811115610d4757fe5b0217905550336008600088815260200190815260200160002060020160006101000a81548173ffffffffffffffffffffffffffffffffffffffff021916908373ffffffffffffffffffffffffffffffffffffffff1602179055503360086000888152602001908152602001600020600e0160006101000a81548173ffffffffffffffffffffffffffffffffffffffff021916908373ffffffffffffffffffffffffffffffffffffffff16021790555060086000878152602001908152602001600020600c0160019054906101000a900473ffffffffffffffffffffffffffffffffffffffff1673ffffffffffffffffffffffffffffffffffffffff166108fc60086000898152602001908152602001600020600b01549081150290604051600060405180830381858888f19350505050158015610e88573d6000803e3d6000fd5b507f653d56639fee6b566a5c804764e9689de38645f0b733df89a36a1b7b42173dd8866040518082815260200191505060405180910390a160086000848152602001908152602001600020600b0154915081340390506008600084815260200190815260200160002060020160009054906101000a900473ffffffffffffffffffffffffffffffffffffffff1673ffffffffffffffffffffffffffffffffffffffff166108fc829081150290604051600060405180830381858888f19350505050158015610f5a573d6000803e3d6000fd5b50505050505050565b610f6c33610c1d565b1515610f7757600080fd5b610f8081612881565b50565b610f8b612d52565b6102006040519081016040528060075481526020018b81526020018a73ffffffffffffffffffffffffffffffffffffffff1681526020018973ffffffffffffffffffffffffffffffffffffffff1681526020018881526020018781526020018681526020018581526020018481526020016007548c018152602001838152602001600081526020016000600681111561102057fe5b8152602001600073ffffffffffffffffffffffffffffffffffffffff168152602001600073ffffffffffffffffffffffffffffffffffffffff168152602001600073ffffffffffffffffffffffffffffffffffffffff16815250905060016007540160078190555080600860008c8152602001908152602001600020600082015181600001556020820151816001015560408201518160020160006101000a81548173ffffffffffffffffffffffffffffffffffffffff021916908373ffffffffffffffffffffffffffffffffffffffff16021790555060608201518160030160006101000a81548173ffffffffffffffffffffffffffffffffffffffff021916908373ffffffffffffffffffffffffffffffffffffffff160217905550608082015181600401908051906020019061115a929190612e49565b5060a0820151816005019080519060200190611177929190612e49565b5060c0820151816006019080519060200190611194929190612e49565b5060e08201518160070190805190602001906111b1929190612e49565b506101008201518160080190805190602001906111cf929190612e49565b50610120820151816009015561014082015181600a0190805190602001906111f8929190612e49565b5061016082015181600b015561018082015181600c0160006101000a81548160ff0219169083600681111561122957fe5b02179055506101a082015181600c0160016101000a81548173ffffffffffffffffffffffffffffffffffffffff021916908373ffffffffffffffffffffffffffffffffffffffff1602179055506101c082015181600d0160006101000a81548173ffffffffffffffffffffffffffffffffffffffff021916908373ffffffffffffffffffffffffffffffffffffffff1602179055506101e082015181600e0160006101000a81548173ffffffffffffffffffffffffffffffffffffffff021916908373ffffffffffffffffffffffffffffffffffffffff1602179055509050507f4229d50c63dbdc5551dd68e0a9879b01ac250cb31feaeba7588533462e6c7aaa8a6040518082815260200191505060405180910390a150505050505050505050565b816004600681111561135a57fe5b60086000838152602001908152602001600020600c0160009054906101000a900460ff16600681111561138957fe5b14151561139557600080fd5b61139e33612383565b15156113a957600080fd5b60086000848152602001908152602001600020600c0160019054906101000a900473ffffffffffffffffffffffffffffffffffffffff168073ffffffffffffffffffffffffffffffffffffffff163373ffffffffffffffffffffffffffffffffffffffff16141515611483576040517f08c379a000000000000000000000000000000000000000000000000000000000815260040180806020018281038252600f8152602001807f636865636b696e672063616c6c6572000000000000000000000000000000000081525060200191505060405180910390fd5b600560086000868152602001908152602001600020600c0160006101000a81548160ff021916908360068111156114b657fe5b02179055508260086000868152602001908152602001600020600b01819055507f3802b4c53cd90ec8bc4edc6e8b669e5af29378c730ac41882495b901dc33e6e9846040518082815260200191505060405180910390a150505050565b600560009054906101000a900473ffffffffffffffffffffffffffffffffffffffff1673ffffffffffffffffffffffffffffffffffffffff163373ffffffffffffffffffffffffffffffffffffffff1614156115a457600560009054906101000a900473ffffffffffffffffffffffffffffffffffffffff1673ffffffffffffffffffffffffffffffffffffffff16ff5b565b6115af336128db565b565b600080600080600060606000806000600860008b8152602001908152602001600020600001549850600860008b8152602001908152602001600020600101549750600860008b8152602001908152602001600020600901549650600860008b8152602001908152602001600020600b01549550600860008b8152602001908152602001600020600c0160009054906101000a900460ff16600681111561165357fe5b9450600860008b8152602001908152602001600020600a018054600181600116156101000203166002900480601f0160208091040260200160405190810160405280929190818152602001828054600181600116156101000203166002900480156116ff5780601f106116d4576101008083540402835291602001916116ff565b820191906000526020600020905b8154815290600101906020018083116116e257829003601f168201915b50505050509350600860008b8152602001908152602001600020600c0160019054906101000a900473ffffffffffffffffffffffffffffffffffffffff169250600860008b8152602001908152602001600020600d0160009054906101000a900473ffffffffffffffffffffffffffffffffffffffff169150600860008b8152602001908152602001600020600e0160009054906101000a900473ffffffffffffffffffffffffffffffffffffffff1690508888888888888888889850985098509850985098509850985098509193959799909294969850565b60006117ef8260036127ed90919063ffffffff16565b9050919050565b600560009054906101000a900473ffffffffffffffffffffffffffffffffffffffff1673ffffffffffffffffffffffffffffffffffffffff163373ffffffffffffffffffffffffffffffffffffffff161415156118bb576040517f08c379a00000000000000000000000000000000000000000000000000000000081526004018080602001828103825260158152602001807f74686973206d6179206e6f74206265206f776e6572000000000000000000000081525060200191505060405180910390fd5b600073ffffffffffffffffffffffffffffffffffffffff16600460009054906101000a900473ffffffffffffffffffffffffffffffffffffffff1673ffffffffffffffffffffffffffffffffffffffff167f5c486528ec3e3f0ea91181cff8116f02bfa350e03b8b6f12e00765adbb5af85c60405160405180910390a36000600460006101000a81548173ffffffffffffffffffffffffffffffffffffffff021916908373ffffffffffffffffffffffffffffffffffffffff160217905550565b600080600080606080606080600860008a8152602001908152602001600020600001549750600860008a8152602001908152602001600020600101549650600860008a815260200190815260200160002060020160009054906101000a900473ffffffffffffffffffffffffffffffffffffffff169550600860008a815260200190815260200160002060030160009054906101000a900473ffffffffffffffffffffffffffffffffffffffff169450600860008a81526020019081526020016000206005018054600181600116156101000203166002900480601f016020809104026020016040519081016040528092919081815260200182805460018160011615610100020316600290048015611ad65780601f10611aab57610100808354040283529160200191611ad6565b820191906000526020600020905b815481529060010190602001808311611ab957829003601f168201915b50505050509350600860008a81526020019081526020016000206006018054600181600116156101000203166002900480601f016020809104026020016040519081016040528092919081815260200182805460018160011615610100020316600290048015611b875780601f10611b5c57610100808354040283529160200191611b87565b820191906000526020600020905b815481529060010190602001808311611b6a57829003601f168201915b50505050509250600860008a81526020019081526020016000206007018054600181600116156101000203166002900480601f016020809104026020016040519081016040528092919081815260200182805460018160011615610100020316600290048015611c385780601f10611c0d57610100808354040283529160200191611c38565b820191906000526020600020905b815481529060010190602001808311611c1b57829003601f168201915b50505050509150600860008a81526020019081526020016000206008018054600181600116156101000203166002900480601f016020809104026020016040519081016040528092919081815260200182805460018160011615610100020316600290048015611ce95780601f10611cbe57610100808354040283529160200191611ce9565b820191906000526020600020905b815481529060010190602001808311611ccc57829003601f168201915b50505050509050878787878787878797509750975097509750975097509750919395975091939597565b6000611d298260016127ed90919063ffffffff16565b9050919050565b6000600460009054906101000a900473ffffffffffffffffffffffffffffffffffffffff1673ffffffffffffffffffffffffffffffffffffffff163373ffffffffffffffffffffffffffffffffffffffff1614905090565b6000600460009054906101000a900473ffffffffffffffffffffffffffffffffffffffff16905090565b8060026006811115611dc057fe5b60086000838152602001908152602001600020600c0160009054906101000a900460ff166006811115611def57fe5b141515611e64576040517f08c379a000000000000000000000000000000000000000000000000000000000815260040180806020018281038252600f8152602001807f6469616d6f6e6420697320736f6c64000000000000000000000000000000000081525060200191505060405180910390fd5b611e6d33612383565b1515611e7857600080fd5b60086000838152602001908152602001600020600c0160019054906101000a900473ffffffffffffffffffffffffffffffffffffffff168073ffffffffffffffffffffffffffffffffffffffff163373ffffffffffffffffffffffffffffffffffffffff16141515611f52576040517f08c379a000000000000000000000000000000000000000000000000000000000815260040180806020018281038252600f8152602001807f636865636b696e672063616c6c6572000000000000000000000000000000000081525060200191505060405180910390fd5b600360086000858152602001908152602001600020600c0160006101000a81548160ff02191690836006811115611f8557fe5b02179055507f3515cea881852acd635a93aa5d2bf2b741ac5470c58f24fc2704db4bc9d8ac17836040518082815260200191505060405180910390a1505050565b8060016006811115611fd457fe5b60086000838152602001908152602001600020600c0160009054906101000a900460ff16600681111561200357fe5b141515612078576040517f08c379a00000000000000000000000000000000000000000000000000000000081526004018080602001828103825260128152602001807f6469616d6f6e6420697320666f7273616c65000000000000000000000000000081525060200191505060405180910390fd5b348034101515156120f1576040517f08c379a000000000000000000000000000000000000000000000000000000000815260040180806020018281038252601c8152602001807f6d73672076616c7565206973206c657373207468616e2070726963650000000081525060200191505060405180910390fd5b826000806120fe33612383565b151561210957600080fd5b600260086000888152602001908152602001600020600c0160006101000a81548160ff0219169083600681111561213c57fe5b0217905550336008600088815260200190815260200160002060020160006101000a81548173ffffffffffffffffffffffffffffffffffffffff021916908373ffffffffffffffffffffffffffffffffffffffff1602179055503360086000888152602001908152602001600020600c0160016101000a81548173ffffffffffffffffffffffffffffffffffffffff021916908373ffffffffffffffffffffffffffffffffffffffff1602179055506008600087815260200190815260200160002060030160009054906101000a900473ffffffffffffffffffffffffffffffffffffffff1673ffffffffffffffffffffffffffffffffffffffff166108fc60086000898152602001908152602001600020600b01549081150290604051600060405180830381858888f1935050505015801561227d573d6000803e3d6000fd5b507f92f64ca637d023f354075a4be751b169c1a8a9ccb6d33cdd0cb3520543995727866040518082815260200191505060405180910390a160086000848152602001908152602001600020600b0154915081340390506008600084815260200190815260200160002060020160009054906101000a900473ffffffffffffffffffffffffffffffffffffffff1673ffffffffffffffffffffffffffffffffffffffff166108fc829081150290604051600060405180830381858888f1935050505015801561234f573d6000803e3d6000fd5b50505050505050565b61236133612383565b151561236c57600080fd5b61237581612935565b50565b6123813361298f565b565b60006123998260026127ed90919063ffffffff16565b9050919050565b6123a9336129e9565b565b6123b433612a43565b565b80600360068111156123c457fe5b60086000838152602001908152602001600020600c0160009054906101000a900460ff1660068111156123f357fe5b1415156123ff57600080fd5b61240833610c1d565b151561241357600080fd5b600460086000848152602001908152602001600020600c0160006101000a81548160ff0219169083600681111561244657fe5b02179055503360086000848152602001908152602001600020600d0160006101000a81548173ffffffffffffffffffffffffffffffffffffffff021916908373ffffffffffffffffffffffffffffffffffffffff1602179055507f4e8c48948db98a1fea8df39d874e32084414a172079b74467a267b66050069b5826040518082815260200191505060405180910390a15050565b81600060068111156124e957fe5b60086000838152602001908152602001600020600c0160009054906101000a900460ff16600681111561251857fe5b14151561252457600080fd5b61252d336117d9565b151561253857600080fd5b6008600084815260200190815260200160002060030160009054906101000a900473ffffffffffffffffffffffffffffffffffffffff168073ffffffffffffffffffffffffffffffffffffffff163373ffffffffffffffffffffffffffffffffffffffff16141515612612576040517f08c379a000000000000000000000000000000000000000000000000000000000815260040180806020018281038252600f8152602001807f636865636b696e672063616c6c6572000000000000000000000000000000000081525060200191505060405180910390fd5b600160086000868152602001908152602001600020600c0160006101000a81548160ff0219169083600681111561264557fe5b02179055508260086000868152602001908152602001600020600b01819055507fa96ae0fc3224ebd79eebfe54bd130cc9cb94416cddd1f2386115e00b72532468846040518082815260200191505060405180910390a150505050565b600560009054906101000a900473ffffffffffffffffffffffffffffffffffffffff1673ffffffffffffffffffffffffffffffffffffffff163373ffffffffffffffffffffffffffffffffffffffff16141515612767576040517f08c379a00000000000000000000000000000000000000000000000000000000081526004018080602001828103825260158152602001807f74686973206d6179206e6f74206265206f776e6572000000000000000000000081525060200191505060405180910390fd5b61277081612a9d565b50565b61277c336117d9565b151561278757600080fd5b61279081612b99565b50565b6127a7816001612bf390919063ffffffff16565b8073ffffffffffffffffffffffffffffffffffffffff167f28b26e7a3d20aedbc5f8f2ebf7da671c0491723a2b78f47a097b0e46dee0714260405160405180910390a250565b60008073ffffffffffffffffffffffffffffffffffffffff168273ffffffffffffffffffffffffffffffffffffffff161415151561282a57600080fd5b8260000160008373ffffffffffffffffffffffffffffffffffffffff1673ffffffffffffffffffffffffffffffffffffffff16815260200190815260200160002060009054906101000a900460ff16905092915050565b612895816000612bf390919063ffffffff16565b8073ffffffffffffffffffffffffffffffffffffffff167f9e685b594e54f370ef91382c0da443292b1378dec458f2a0d0009e7451547dab60405160405180910390a250565b6128ef816001612ca390919063ffffffff16565b8073ffffffffffffffffffffffffffffffffffffffff167fe3f5ed5f263f1f01764a96edfc7d025f511ec5f7d180e8816908b78bcf74f09860405160405180910390a250565b612949816002612bf390919063ffffffff16565b8073ffffffffffffffffffffffffffffffffffffffff167f8822170bea86e96454f483ceee2e06476112c4279f6842fd6e0d7d29e10a8c9360405160405180910390a250565b6129a3816003612ca390919063ffffffff16565b8073ffffffffffffffffffffffffffffffffffffffff167f5cc1994decde3269aa6e74a6ebaea65385d20e57613532d2a24a47233de42aa760405160405180910390a250565b6129fd816002612ca390919063ffffffff16565b8073ffffffffffffffffffffffffffffffffffffffff167f7e3afdbb6a6ac57f601590ffcc549ce2b25a2128ff6cdd6520333aa46bb044c360405160405180910390a250565b612a57816000612ca390919063ffffffff16565b8073ffffffffffffffffffffffffffffffffffffffff167f45cee538c02c2ddcdfc31b5b9ab913c23f938f81483c880884d94694b2985a3360405160405180910390a250565b600073ffffffffffffffffffffffffffffffffffffffff168173ffffffffffffffffffffffffffffffffffffffff1614151515612ad957600080fd5b8073ffffffffffffffffffffffffffffffffffffffff16600460009054906101000a900473ffffffffffffffffffffffffffffffffffffffff1673ffffffffffffffffffffffffffffffffffffffff167f5c486528ec3e3f0ea91181cff8116f02bfa350e03b8b6f12e00765adbb5af85c60405160405180910390a380600460006101000a81548173ffffffffffffffffffffffffffffffffffffffff021916908373ffffffffffffffffffffffffffffffffffffffff16021790555050565b612bad816003612bf390919063ffffffff16565b8073ffffffffffffffffffffffffffffffffffffffff167f174847fbc976d2d8ecaced95d821f1d0be15b9a507f3ca3c6732d7662af4207e60405160405180910390a250565b600073ffffffffffffffffffffffffffffffffffffffff168173ffffffffffffffffffffffffffffffffffffffff1614151515612c2f57600080fd5b612c3982826127ed565b151515612c4557600080fd5b60018260000160008373ffffffffffffffffffffffffffffffffffffffff1673ffffffffffffffffffffffffffffffffffffffff16815260200190815260200160002060006101000a81548160ff0219169083151502179055505050565b600073ffffffffffffffffffffffffffffffffffffffff168173ffffffffffffffffffffffffffffffffffffffff1614151515612cdf57600080fd5b612ce982826127ed565b1515612cf457600080fd5b60008260000160008373ffffffffffffffffffffffffffffffffffffffff1673ffffffffffffffffffffffffffffffffffffffff16815260200190815260200160002060006101000a81548160ff0219169083151502179055505050565b610200604051908101604052806000815260200160008152602001600073ffffffffffffffffffffffffffffffffffffffff168152602001600073ffffffffffffffffffffffffffffffffffffffff168152602001606081526020016060815260200160608152602001606081526020016060815260200160008152602001606081526020016000815260200160006006811115612dec57fe5b8152602001600073ffffffffffffffffffffffffffffffffffffffff168152602001600073ffffffffffffffffffffffffffffffffffffffff168152602001600073ffffffffffffffffffffffffffffffffffffffff1681525090565b828054600181600116156101000203166002900490600052602060002090601f016020900481019282601f10612e8a57805160ff1916838001178555612eb8565b82800160010185558215612eb8579182015b82811115612eb7578251825591602001919060010190612e9c565b5b509050612ec59190612ec9565b5090565b612eeb91905b80821115612ee7576000816000905550600101612ecf565b5090565b905600a165627a7a72305820d47c866b79fc26a42958e840ccbeab854d0dd50e57280717dcf130c5c4cc1bbb0029",
  "source": "pragma solidity ^0.4.24;\n// Define a contract 'Supplychain'\nimport \"../diamondaccesscontrol/CertifierRole.sol\";\nimport \"../diamondaccesscontrol/ConsumerRole.sol\";\nimport \"../diamondaccesscontrol/JewellerRole.sol\";\nimport \"../diamondaccesscontrol/MinerRole.sol\";\nimport \"../diamondcore/Ownable.sol\";\n\n\ncontract SupplyChain  is CertifierRole, ConsumerRole, JewellerRole, MinerRole, Ownable {\n\n  // Define 'owner'\n  address owner;\n\n  // Define a variable called 'upc' for Universal Product Code (UPC)\n  uint  upc;\n\n  // Define a variable called 'sku' for Stock Keeping Unit (SKU)\n  uint  sku;\n\n  // Define a public mapping 'items' that maps the UPC to an Item.\n  mapping (uint => Diamond) diamonds;\n\n  // Define a public mapping 'itemsHistory' that maps the UPC to an array of TxHash, \n  // that track its journey through the supply chain -- to be sent from DApp.\n  mapping (uint => string[]) diamondsHistory;\n  \n  // Define enum 'State' with the following values:\n  enum State \n  { \n    Mined,      // 0\n    ForSale,    // 1  \n    Sold,       // 2\n    Polished,   // 3\n    Certified,  // 4\n    ForAuction, // 5\n    Purchased   // 6\n    }\n\n  State constant defaultState = State.Mined;\n\n  // Define a struct 'Item' with the following fields:\n  struct Diamond {\n    uint    sku;  // Stock Keeping Unit (SKU)\n    uint    upc; // Universal Product Code (UPC), generated by the miner, goes on the package, can be verified by the certifier\n    address ownerID;  // Metamask-Ethereum address of the current owner as the diamond moves through 8 stages\n    address originMinerID; // Metamask-Ethereum address of the Miner\n    string  originMinerName; // Miner Name\n    string  diamondColor;  // Diamond Color\n    string  diamondLength; // Diamond Length\n    string  diamondWidth;  // Diamond Width\n    string  diamondCarat;  // Diamond Carat\n    uint    diamondID;  // Diamond ID potentially a combination of upc + sku\n    string  diamondNotes; // Diamond Notes\n    uint    diamondPrice; // Product Price\n    State   itemState;  // Diamond State as represented in the enum above\n    address jewellerID;  // Metamask-Ethereum address of the jeweller\n    address certifierID; // Metamask-Ethereum address of the certifier\n    address finalOwnerID; // Metamask-Ethereum address of the buyer\n  }\n\n  // Define 8 events with the same 8 state values and accept 'upc' as input argument\n  event Mined(uint upc);\n  event ForSale(uint upc);\n  event Sold(uint upc);\n  event Polished(uint upc);\n  event Certified(uint upc);\n  event ForAuction(uint upc);\n  event Purchased(uint upc);\n\n  // Define a modifer that checks to see if msg.sender == owner of the contract\n  modifier onlyOwner() {\n    require(msg.sender == owner, \"this may not be owner\");\n    _;\n  }\n\n  // Define a modifer that verifies the Caller\n  modifier verifyCaller (address _address) {\n    require(msg.sender == _address, \"checking caller\"); \n    _;\n  }\n\n  // Define a modifier that checks if the paid amount is sufficient to cover the price\n  modifier paidEnough(uint _price) { \n    require(msg.value >= _price, \"msg value is less than price\"); \n    _;\n  }\n  \n  // Define a modifier that checks the price and refunds the remaining balance\n  modifier checkValue(uint _upc) {\n    _;\n    uint _price = diamonds[_upc].diamondPrice;\n    uint amountToReturn = msg.value - _price;\n    diamonds[_upc].ownerID.transfer(amountToReturn);\n  }\n\n  // Define a modifier that checks if an item.state of a upc is mined\n  modifier mined(uint _upc) {\n    require(diamonds[_upc].itemState == State.Mined);\n    _;\n  }\n\n  // Define a modifier that checks if an item.state of a upc is forSale\n  modifier forSale(uint _upc) {\n    require(diamonds[_upc].itemState == State.ForSale, \"diamond is forsale\");\n    _;\n  }\n  \n  // Define a modifier that checks if an item.state of a upc is sold\n  modifier sold(uint _upc) {\n    require(diamonds[_upc].itemState == State.Sold, \"diamond is sold\");\n    _;\n  }\n\n  // Define a modifier that checks if an item.state of a upc is polished\n  modifier polished(uint _upc) {\n    require(diamonds[_upc].itemState == State.Polished);\n    _;\n  }\n\n  // Define a modifier that checks if an item.state of a upc is certified\n  modifier certified(uint _upc) {\n    require(diamonds[_upc].itemState == State.Certified);\n    _;\n  }\n  \n  // Define a modifier that checks if an item.state of a upc is for auction\n  modifier forAuction(uint _upc) {\n    require(diamonds[_upc].itemState == State.ForAuction);\n    _;\n  }\n\n  // Define a modifier that checks if an item.state of a upc is Purchased\n  modifier purchased(uint _upc) {\n    require(diamonds[_upc].itemState == State.Purchased);\n    _;\n  }\n\n  // In the constructor set 'owner' to the address that instantiated the contract\n  // and set 'sku' to 1\n  // and set 'upc' to 1\n  constructor() public payable {\n    owner = msg.sender;\n    sku = 1;\n    upc = 1;\n  }\n\n  // Define a function 'kill' if required\n  function kill() public {\n    if (msg.sender == owner) {\n      selfdestruct(owner);\n    }\n  }\n\n  // Define a function 'mineDiamond' that allows a farmer to mark an item 'mined'\n  function mineDiamond(uint _upc, address ownerID, address _originMinerID, string _originMinerName, string  _diamondColor, string  _diamondLength, string  _diamondWidth, string _diamondCarat, string _diamondNotes) public \n  {\n    // Add the new item as part of mine\n    \n    Diamond memory newDiamond = Diamond( sku,_upc, ownerID, _originMinerID, _originMinerName,_diamondColor, _diamondLength, _diamondWidth,_diamondCarat, _upc+ sku, _diamondNotes,0,State.Mined, 0x0,0x0,0x0);\n\n    // Increment sku\n    sku = sku + 1;\n    // Emit the appropriate event\n    \n    diamonds[_upc] = newDiamond;\n\n    emit Mined(_upc);\n  }\n\n  // Define a function 'processtItem' that allows a farmer to mark an item 'Processed'\n  function putRawDiamondForSale(uint _upc, uint _price) public mined(_upc)  onlyMiner() verifyCaller(diamonds[_upc].originMinerID)\n  // Call modifier to check if upc has passed previous supply chain stage  \n  // Call modifier to verify caller of this function  \n  {\n    // Update the appropriate fields\n    diamonds[_upc].itemState = State.ForSale;\n    diamonds[_upc].diamondPrice = _price;\n        \n    // Emit the appropriate event\n    emit ForSale(_upc);\n  }\n\n  // Define a function 'buyItem' that allows the disributor to mark an item 'Sold'\n  // Use the above defined modifiers to check if the item is available for sale, if the buyer has paid enough, \n  // and any excess ether sent is refunded back to the buyer\n  function buyRawDiamond(uint _upc) public payable  forSale(_upc) paidEnough(msg.value)  checkValue(_upc) onlyJeweller()\n    // Call modifier to check if upc has passed previous supply chain stage    \n    // Call modifer to check if buyer has paid enough    \n    // Call modifer to send any excess ether back to buyer    \n    {\n      // Update the appropriate fields - ownerID, distributorID, itemState\n      diamonds[_upc].itemState = State.Sold;\n      diamonds[_upc].ownerID = msg.sender;\n      diamonds[_upc].jewellerID = msg.sender;\n     \n      // Transfer money to farmer\n      diamonds[_upc].originMinerID.transfer(diamonds[_upc].diamondPrice);\n    \n      // emit the appropriate event\n      emit Sold(_upc);\n      \n    }\n\n  // Define a function 'sellItem' that allows a farmer to mark an item 'ForSale'\n  function polishDiamond(uint _upc) public sold(_upc) onlyJeweller() verifyCaller(diamonds[_upc].jewellerID)\n  // Call modifier to check if upc has passed previous supply chain stage  \n  // Call modifier to verify caller of this function  \n  {\n    // Update the appropriate fields\n      diamonds[_upc].itemState = State.Polished;\n      //diamonds[_upc].ownerID = msg.sender;\n     // diamonds[_upc].certifierID = msg.sender;\n    \n    // Emit the appropriate event\n    emit Polished(_upc);\n    \n  }\n\n  // Define a function 'buyItem' that allows the disributor to mark an item 'Sold'\n  // Use the above defined modifiers to check if the item is available for sale, if the buyer has paid enough, \n  // and any excess ether sent is refunded back to the buyer\n  function certifyDiamond(uint _upc) public polished(_upc) onlyCertifier() \n  // Call modifier to check if upc has passed previous supply chain stage  \n  // Call modifier to verify caller of this function    \n    {\n      // Update the appropriate fields\n      diamonds[_upc].itemState = State.Certified;\n      diamonds[_upc].certifierID = msg.sender;\n      // Emit the appropriate event    \n      emit Certified(_upc);\n    }\n\n  // Define a function 'shipItem' that allows the distributor to mark an item 'Shipped'\n  // Use the above modifers to check if the item is sold\n  function addDiamondForAuction(uint _upc, uint _price) public certified(_upc)  onlyJeweller() verifyCaller(diamonds[_upc].jewellerID)\n    // Call modifier to check if upc has passed previous supply chain stage    \n    // Call modifier to verify caller of this function    \n    {\n      // Update the appropriate fields\n      diamonds[_upc].itemState = State.ForAuction;\n      diamonds[_upc].diamondPrice = _price;\n\n      // Emit the appropriate event\n      emit ForAuction(_upc);\n    \n    }\n\n  // Define a function 'receiveItem' that allows the retailer to mark an item 'Received'\n  // Use the above modifiers to check if the item is shipped\n  function purchaseDiamond(uint _upc) public payable forAuction(_upc) paidEnough(msg.value)  checkValue(_upc) onlyConsumer()\n    // Call modifier to check if upc has passed previous supply chain stage    \n    // Access Control List enforced by calling Smart Contract / DApp\n    {\n    // Update the appropriate fields - ownerID, retailerID, itemState\n    diamonds[_upc].itemState = State.Purchased;\n    diamonds[_upc].ownerID = msg.sender;\n    diamonds[_upc].finalOwnerID = msg.sender;\n\n    diamonds[_upc].jewellerID.transfer(diamonds[_upc].diamondPrice);\n\n    // Emit the appropriate event\n    emit Purchased(_upc);\n\n    \n  }\n\n\n  // Define a function 'fetchItemBufferOne' that fetches the data\n  function fetchItemBufferOne(uint _upc) public view returns \n  (\n  uint    itemSKU,\n  uint    itemUPC,\n  address ownerID,\n  address originMinerID,\n  string  diamondColor,    \n  string  diamondLength,\n  string  diamondWidth,    \n  string  diamondCarat\n  \n  ) \n  {\n  // Assign values to the 8 parameters\n  \n    itemSKU = diamonds[_upc].sku;\n    itemUPC = diamonds[_upc].upc;\n    ownerID = diamonds[_upc].ownerID;\n    originMinerID = diamonds[_upc].originMinerID;\n    diamondColor = diamonds[_upc].diamondColor;\n    diamondLength = diamonds[_upc].diamondLength;\n    diamondWidth = diamonds[_upc].diamondWidth;\n    diamondCarat = diamonds[_upc].diamondCarat;\n\n  return \n  (\n  itemSKU,\n  itemUPC,\n  ownerID,\n  originMinerID,\n  diamondColor,    \n  diamondLength,\n  diamondWidth,    \n  diamondCarat\n  );\n  }\n\n  // Define a function 'fetchItemBufferTwo' that fetches the data\n  function fetchItemBufferTwo(uint _upc) public view returns \n  (\n  uint    itemSKU,\n  uint    itemUPC,\n  uint    diamondID,\n  uint    diamondPrice,\n  uint    itemState,\n  string  diamondNotes,\n  address jewellerID,\n  address certifierID,\n  address finalOwnerID\n  ) \n  {\n    // Assign values to the 9 parameters\n    itemSKU = diamonds[_upc].sku;\n    itemUPC = diamonds[_upc].upc;\n    diamondID = diamonds[_upc].diamondID;\n    diamondPrice = diamonds[_upc].diamondPrice;\n    itemState = uint(diamonds[_upc].itemState);\n    diamondNotes = diamonds[_upc].diamondNotes;\n    jewellerID = diamonds[_upc].jewellerID;\n    certifierID = diamonds[_upc].certifierID;\n    finalOwnerID = diamonds[_upc].finalOwnerID;\n \n    \n  return \n  (\n  itemSKU,\n  itemUPC,\n  diamondID,\n  diamondPrice,  \n  itemState,\n  diamondNotes,\n  jewellerID,\n  certifierID,\n  finalOwnerID\n  );\n  }\n}\n",
  "sourcePath": "C:\\Swati\\BlockChain\\Project6\\contracts\\diamondbase\\SupplyChain.sol",
  "compiler": {
    "name": "solc",
    "version": "0.4.24+commit.e67f0147.Emscripten.clang"
  },
  "schemaVersion": "2.0.1",
  "updatedAt": "2019-03-14T13:49:46.735Z"
}